:020000040800F2
:10000000A8080020050100080D0100080F010008E4
:10001000110100081301000815010008000000008C
:1000200000000000000000000000000017010008B0
:1000300019010008000000001B0100088D0E0008D7
:100040001F0100081F0100081F0100081F01000810
:100050001F0100081F0100081F0100081F01000800
:100060001F0100081F0100081F0100081F010008F0
:10007000D90700081F010008F10700081F01000848
:100080001F010008090800081F0100081F010008DF
:100090001F0100081F0100081F0100081F010008C0
:1000A0001F0100081F0100081F0100081F010008B0
:1000B0001F0100081F0100081F0100081F010008A0
:1000C0001F0100081F0100081F0100081F01000890
:1000D0001F0100080D0F0008250F00083D0F000844
:1000E0001F0100081F0100081F010008DFF810D0E1
:1000F00000F09CFA00F018F800480047A91E00081C
:10010000A80800200648804706480047FEE7FEE7AB
:10011000FEE7FEE7FEE7FEE7FEE7FEE7FEE7FEE7B7
:10012000AD0E0008ED00000870B5054C054D03E06C
:10013000206820448047241DAC42F9D170BD0000E6
:10014000E8210008F82100082DE9FE4F804681EAE9
:100150000300C00F0C46009021F0004123F0004541
:10016000B8EB0200A94105D24046214690461C4604
:100170000B46024623F00040104347D0270DC7F33B
:100180000A00C3F30A510290401A019040286BDA2A
:10019000C3F3130040F4801B0098924620B1002363
:1001A000D2EB030A63EB0B0B01985946C0F14002F6
:1001B000504600F0A7F906460D4650465946019AAA
:1001C00000F0BFF910EB08006141002487EA1152EA
:1001D00084EAE7731A4340D0009A62B3019A012A75
:1001E0004FEA075215DC001B61EB02014FF00042A1
:1001F00002EA0752CDE90042001C41F58011324667
:100200002B4600F0C5F903B0BDE8F08F404621460B
:10021000F9E7001B61EB0201001C41F58013001897
:100220005B412018A2F5001747EB030140EAD570A7
:10023000B6196D4111E06D084FEA360645EAC07502
:100240004FEA0752001B61EB0201001C41F58011CF
:1002500049084FEA30000019514132462B4603B09D
:10026000BDE8F04F00F085B900980122400000235E
:10027000D0EB020263EBE073009821464FEAE07492
:10028000B8EB000061EB0401E9E783F000435BE7B2
:1002900081F0004158E72DE9FE4F81EA030404F0A4
:1002A000004421F0004100944FF0000B23F0004384
:1002B00050EA01045ED052EA03045BD0C3F30A544F
:1002C000C1F30A552C44A4F2F3340194A0FB025468
:1002D000C1F3130141F48011C3F3130343F48013FA
:1002E00001FB024400FB034E840A970A44EA81544E
:1002F00047EA8357A4FB076802958D0A05FB07852B
:100300004FEA932C04FB0C542705029D4FEA065834
:1003100047EA1637B5EB08056EEB070C870E920E11
:1003200047EA811742EA8312A7FB0201B6EB0B01F1
:1003300064EB00042B0D43EA0C335E1844EB1C50B5
:10034000DA465146E7FB0201C5F313044FEA0B33CB
:1003500043EA14534FEA0432019C43EA0603A4F132
:100360000C040294009CCDE900B400F011F903B034
:10037000BDE8F08F00200146F9E72DE9F04D81EA54
:10038000030404F0004B21F0004514464FF0000A2E
:1003900023F0004150EA050220D054EA01021DD0AA
:1003A000C5F30A570246C5F31303C1F31300C1F3A3
:1003B0000A5640F4801543F48013A7EB0608101B7F
:1003C000D64608F2FD3873EB050002D308F10108A8
:1003D00001E092185B41B8F1000F03DA00200146FA
:1003E000BDE8F08D00204FF48011064684460EE0F3
:1003F000171B73EB050705D3121B63EB05030643BD
:100400004CEA010C49084FEA300092185B4150EA6F
:100410000107EDD152EA030012D082EA040083EA18
:100420000501084305D0101BAB4106D20122002371
:1004300006E000224FF0004302E06FF0010253108B
:100440001AEB06004CEB085110EB0A0041EB0B01D4
:10045000BDE8F04D00F08DB80EB540F23341029189
:100460000021CDE900110A460B4600F091F803B0D7
:1004700000BDC1F30A5210B5C1F3130140F2FF33BE
:1004800041F480119A4201DA002010BD40F233435A
:100490009A42A2F2334203DC524200F042F810BD0D
:1004A000904010BD30B5041E71F1000404DB4FF024
:1004B0000044404264EB0101141E73F1000405DBAB
:1004C0001C464FF00043524263EB04038B4208BFCB
:1004D000824230BD30B5041E71F1000404DB4FF0E0
:1004E0000044404264EB0101141E73F1000405DB7B
:1004F0001C464FF00043524263EB0403994208BF8D
:10050000904230BD202A04DB203A00FA02F100209C
:1005100070479140C2F1200320FA03F31943904041
:100520007047202A04DB203A21FA02F000217047AC
:1005300021FA02F3D040C2F120029140084319464B
:100540007047202A06DBCB17203A41FA02F043EA33
:10055000E07306E041FA02F3D040C2F1200291407C
:100560000843194670470000004870475C000020AF
:10057000704710B5141E73F1000408DA401C41F1F5
:10058000000192185B411A4301D120F0010010BD17
:100590002DE9F04D92469B4611B1B1FA81F202E08D
:1005A000B0FA80F220329046FFF7ACFF04460F46C7
:1005B00040EA0A0041EA0B0153465A46084313D069
:1005C000114653EA010019D0C8F140025046FFF726
:1005D000A8FF05460E46504659464246FFF792FF91
:1005E000084305D0012004E020463946BDE8F08DDF
:1005F0000020054346EAE0762C4337430A9863051A
:10060000E40AA0EB08000022FD0A44EA47540A303D
:1006100002D500200146E9E7010510196941DDE92D
:10062000084500196941BDE8F04DA2E7064C074DA9
:1006300006E0E06840F0010394E8070098471034B2
:10064000AC42F6D3FFF756FDC8210008E8210008A8
:1006500021B1826842F00102826003E0826822F0E8
:1006600001028260704721B1826842F48072826028
:1006700003E0826822F480728260704701460020A5
:100680008A6802F004020AB1012000E000207047ED
:10069000014600208A6802F008020AB1012000E049
:1006A0000020704730B502460020002350680F4CF0
:1006B00020400D790C6844EA05242043506090687E
:1006C0000B4C2040D1E902542C434D7944EA4504B7
:1006D00020439060D06A20F470000C7C641EE4B269
:1006E000234340EA0350D06230BD0000FFFEF0FF1C
:1006F000FDF7F1FFF0B504460D4600200021092D5D
:1007000011DDE068A5F10A0606EB4607072606FAA2
:1007100007F18843A5F10A0606EB460603FA06F13F
:100720000843E0600CE0206905EB4507072606FA60
:1007300007F1884305EB450603FA06F108432061FB
:10074000072A0FDA606B561E06EB86071F2606FA8D
:1007500007F18843561E06EB860605FA06F10843A4
:10076000606322E00D2A0FDA206BD61F06EB8607A6
:100770001F2606FA07F18843D61F06EB860605FA00
:1007800006F10843206310E0E06AA2F10D0606EBD3
:1007900086071F2606FA07F18843A2F10D0606EB2D
:1007A000860605FA06F10843E062F0BD816841F073
:1007B00008018160704721B1826842F4A002826022
:1007C00003E0826822F4A00282607047816841F0F1
:1007D000040181607047000010B50448006818B13A
:1007E0000248006800F0A4FF10BD000024000020B3
:1007F00010B50448006818B10248006800F098FF7E
:1008000010BD00001C00002010B50448006818B19D
:100810000248006800F08CFF10BD0000200000209E
:1008200000F0805111B10349086001E002494860BD
:1008300070470000040402400000024000F08051B4
:1008400011B10349086001E00249486070470000A7
:10085000040402400000024021B1026842F001029B
:10086000026004E002684FF6FE731A4002607047AF
:1008700001684FF6FE721140016000210160416085
:100880008160C1604B49884208D14A4908394968AA
:1008900041F00F01474A083A51608AE04549143156
:1008A000884208D143490839496841F0F001414A7A
:1008B000083A51607DE03F492831884208D13D49DE
:1008C0000839496841F470613A4A083A516070E069
:1008D00038493C31884208D136490839496841F4E1
:1008E0007041344A083A516063E0324950318842DD
:1008F00008D130490839496841F470212D4A083A35
:10090000516056E02B496431884208D129490839A1
:10091000496841F47001274A083A516049E0254985
:100920007831884208D123490839496841F070611B
:10093000204A083A51603CE01F49884206D1011F15
:10094000096841F00F01021F116032E01A491431A9
:10095000884208D11849091F096841F0F001164A78
:10096000121F116025E014492831884208D112492C
:10097000091F096841F470610F4A121F116018E0E5
:100980000D493C31884208D10B49091F096841F4DF
:100990007041094A121F11600BE00749503188422B
:1009A00007D10549091F096841F47021024A121F45
:1009B0001160704708000240080402400146002010
:1009C000002201F0805313B1054B1A6801E0054B7A
:1009D0001A6802EA01030BB1012000E00020704711
:1009E000000402400000024010B50022026847F6F1
:1009F000F0739A430C6A8B6823430C6923434C6958
:100A000023438C692343CC6923434C6A23438C6A78
:100A100023431A430260CB6843600B6883604B68D2
:100A2000C36010BD2DE9F0410246002500260020DC
:100A300000230024002791F803C00CF00F0591F863
:100A400003C00CF0100CBCF1000F03D091F802C0F1
:100A50004CEA050591F800C0BCF1000F31D01468D4
:100A600000202BE04FF0010C0CFA00F3B1F800C0AD
:100A70000CEA03069E4220D183004FF00F0C0CFAC3
:100A800003F7BC4305FA03FC4CEA040491F803C0E5
:100A9000BCF1280F06D14FF0010C0CFA00FCC2F893
:100AA00014C00AE091F803C0BCF1480F05D14FF023
:100AB000010C0CFA00FCC2F810C0401C0828D1D36D
:100AC0001460B1F800C0BCF1FF0F34DD54680020A1
:100AD0002EE000F1080C4FF0010808FA0CF3B1F811
:100AE00000C00CEA03069E4221D183004FF00F0C98
:100AF0000CFA03F7BC4305FA03FC4CEA040491F832
:100B000003C0BCF1280F05D100F1080C08FA0CF85D
:100B1000C2F8148091F803C0BCF1480F07D100F16E
:100B2000080C4FF0010808FA0CF8C2F81080401CBD
:100B30000828CED35460BDE8F0810000F0B50A4625
:100B4000002300240021002500F00046B6F1004FEC
:100B500002D11D4EF16901E01B4E7168C0F30345DF
:100B600083B200F44016B6F5401F08D121F0706141
:100B7000154E766826F07066134F7E6012E000F422
:100B80008016B6F5801F06D1032606FA05F4A143A8
:100B900041F0706106E0460D360103FA06F6B143F6
:100BA00041F0706122B1460D360103FA06F6314379
:100BB00000F00046B6F1004F02D1034EF16101E0B2
:100BC000014E7160F0BD00000000014041617047BE
:100BD0000161704770B5002100230F22C47804B36F
:100BE000154C246804F4E064C4F5E064210AC1F102
:100BF0000403CA40447804FA03F184781440214382
:100C000009010E4C0678A155047804F01F05012453
:100C1000AC4005786D11AD0005F1E025C5F8004147
:100C200009E0047804F01F050124AC40044D067867
:100C3000761145F8264070BD0CED00E000E400E0C0
:100C400080E100E002490143024A11607047000060
:100C50000000FA050CED00E001460020034A506850
:100C600020F44040084350607047000000100240EC
:100C700029B1064A52690243044B5A6104E0034A0F
:100C800052698243014B5A617047000000100240D4
:100C900029B1064AD2690243044BDA6104E0034AEF
:100CA000D2698243014BDA617047000000100240B4
:100CB00029B1064A92690243044B9A6104E0034A4F
:100CC00092698243014B9A61704700000010024014
:100CD00030B500210022002400232D4D6D6805F061
:100CE0000C0121B1042905D0082923D105E0294DA3
:100CF000056022E0274D05601FE0254D6D6805F475
:100D00007012234D6D6805F48034022505EB924284
:100D10001CB9214D554305600BE01D4D6D6805F470
:100D200000351DB11C4D5543056002E0194D55437A
:100D3000056002E0174D056000BF00BF144D6D68EF
:100D400005F0F0010909154D6B5C0568DD40456053
:100D50000F4D6D6805F4E061090A104D6B5C456844
:100D6000DD4085600A4D6D6805F46051C90A0B4D80
:100D70006B5C4568DD40C560054D6D6805F440411C
:100D8000890B074D6B5CC568B5FBF3F5056130BD9C
:100D90000010024000127A0000093D0048000020C7
:100DA0005800002010B500F001F810BD0CB500206F
:100DB000019000903348006840F480303149086069
:100DC00000BF3048006800F4003000900198401CDB
:100DD0000190009818B90198B0F5A06FF1D1294899
:100DE000006800F4003010B10120009001E0002004
:100DF00000900098012843D12348006840F010007B
:100E0000214908600846006820F003000860084691
:100E1000006840F0020008601A48406819494860BC
:100E20000846406848600846406840F48060486072
:100E30000846406820F47C1048600846406840F44A
:100E4000E81048600846006840F08070086000BF05
:100E50000C48006800F000700028F9D0094840688C
:100E600020F00300074948600846406840F002004F
:100E7000486000BF0348406800F00C000828F9D122
:100E80000CBD0000001002400020024010B5044AD2
:100E9000044B054903C9FFF757F9034A03C210BDC4
:100EA000CDCCCCCCCCCCFC3F4000002010B51348BE
:100EB000006840F001001149086008464068104988
:100EC00008400E494860084600680E4908400B4932
:100ED00008600846006820F48020086008464068E2
:100EE00020F4FE0048604FF41F008860FFF75AFFAF
:100EF0004FF000600449086010BD0000001002407F
:100F00000000FFF8FFFFF6FE08ED00E010B5044812
:100F1000006818B10248006800F0A2FB10BD000094
:100F20001C00002010B50448006818B10248006891
:100F300000F096FB10BD00002000002010B5044812
:100F4000006818B10248006800F08AFB10BD00007C
:100F50002400002010B50022002340F66A14A142AC
:100F600000D100BF0A1201249440A3B2DC430480E4
:100F700010BD21B1828942F40052828104E082894D
:100F80004DF6FF731A40828170471AB1838A0B4372
:100F9000838202E0838A8B4383827047024600206B
:100FA000B1F5007F00D100BF13880B400BB10120C9
:100FB00000E00020704770B50246002400230025A1
:100FC000002040F66A16B14200D100BFC1F34215BD
:100FD00001F01F03012606FA03F3012D02D19689C1
:100FE000334006E0022D02D1168A334001E0968A92
:100FF00033400C12012606FA04F41688344013B16B
:101000000CB1012000E0002070BDF0B503460024C3
:1010100000260025002040F66A17B94200D100BF23
:101020001846C1F3421401F01F06012707FA06F51E
:10103000012C01D10C3004E0022C01D1103000E071
:1010400014301AB107682F43076002E00768AF4306
:101050000760F0BD2DE9F04786B005460E46002436
:10106000A24600BFA1460027B08900B100BF2F46AD
:101070002C8A4CF6FF700440F08804432C82AC8923
:101080004EF6F3100440B088318908437189084353
:101090000443AC81AC8A4FF6FF400440B08904435E
:1010A000AC8201A8FFF714FE1F48874202D1DDF889
:1010B00010A001E0DDF80CA0A88900F4004040B1C8
:1010C0000AEBCA0000EB0A1031684900B0FBF1F8E6
:1010D00007E00AEBCA0000EB0A1031688900B0FB98
:1010E000F1F86420B8FBF0F004012009642101FB51
:1010F0001089A88900F4004040B1322000EBC900FB
:10110000B0FBF1F000F00700044308E0322000EBF0
:1011100009106421B0FBF1F000F00F0004432C81B2
:1011200006B0BDE8F087000000380140014688881D
:10113000C0F308007047C1F30802828070470000C6
:101140002DE9F0474FF0E0218869FFF785F9064661
:101150000022174BFFF711F904460D46154A164BAE
:10116000164903C9FEF7F0FF804622462B46FFF7DB
:101170008CF8134A03C2134811490CC803C9FFF77E
:1011800084F80446104A114BFFF7A4F907D2094A24
:10119000094B0B4903C9FFF778F8094A03C208490C
:1011A00003C9084A03C2064903C9BDE8F087000025
:1011B000882A6141CDCCCCCCCCCCFC3F4000002077
:1011C000300000203800002062105839B4C8FC3FBD
:1011D0002DE9FC5F83460C46FFF7B2FF05460E463D
:1011E00000BF2046FFF738F9074600220A4BFFF7F9
:1011F000C4F881468A46FFF7A3FF07462A463346CE
:10120000FFF743F84A465346CDE90001FFF74AF994
:10121000E7D3BDE8FC9F000000408F404FF0E02185
:10122000096921F004014FF0E02211610349516185
:101230001146096941F00301116170474031F7001F
:1012400030B504460878FF281FD14878DD281CD126
:1012500088780006CA7800EB02400A7900EB022089
:101260004A798318022B0FD10022002003E00D5C85
:101270002A44451CE8B20728F9DBC879D5B2A84250
:1012800001D1887930BD00BF00BF0020FAE770B5FA
:101290000446FF202075CC2565750025A575E575EC
:1012A0002576022565760325A576E1762277637794
:1012B000002527200555002009E027252E5D04F193
:1012C00014052D5C3544EEB227252E55401C1328FD
:1012D000F3DB04F1140070BD0146002006E000239A
:1012E00001F11402135400220A54401C1428F6DBA6
:1012F000084670472DE9FF4F91B00F46904699463A
:10130000DDF878A00A2F02DA01207C49C855B8F12F
:101310000A0F03DA0120794901F80800B9F10A0F30
:1013200003DA0120754901F80900BAF10A0F03DA5E
:101330000120724901F80A001F980A2803DA0121E6
:101340006E4A1F98115420980A2803DA01216B4A2B
:101350002098115421980A2803DA0121674A21981C
:10136000115422980A2803DA0121644A2298115460
:1013700023980A2803DA0121604A239811542498FB
:101380000A2803DA01215D4A249811540025002619
:101390000024002010E05949095C61B1611C8CB245
:1013A000082804DA564931F810100D4303E0544977
:1013B00031F810100E43401C0A28ECDB00208DF899
:1013C00043004DB101210420FFF772FCADF84050FD
:1013D00010A94C48FFF726FB4EB101210820FFF76A
:1013E00067FCADF8406010A94748FFF71BFB0121DF
:1013F0000846FFF73DFC4548FFF73AFA4448059098
:1014000044480690002007900894099080200A9094
:1014100040000B9080000C9020200D9000020E9058
:1014200000200F9005A93948FFF7DEFA012137485F
:10143000FFF712FA01214802FFF73AFC01210846A2
:10144000FFF736FC4FF40040FFF706FC0020009049
:1014500001208DF804008DF805004FF46020029003
:1014600000200390E0B28DF81000694628484C38FF
:10147000FFF718F94FF0090B13E0204810F80B00A4
:1014800068B12046631E9CB2C2B20BF0FF01072375
:101490001F484C38FFF72EF91F4901F80B40ABF1FC
:1014A000010BBBF1000FE8DA012119484C38FFF7B6
:1014B000DAF8012116484C38FFF7CAF814484C38BE
:1014C000FFF774F900BF12484C38FFF7E1F8002825
:1014D000F9D10F484C38FFF779F900BF0C484C3868
:1014E000FFF7CCF80028F9D1012109484C38FFF763
:1014F00062F9119815B0BDE8F08F00006800002077
:101500000400002000080140000C014008000240D7
:101510004C2401407C000020720000202DE9F041A5
:1015200007460C460A2C03DB00200146BDE8F0818B
:101530000948005D68B10949095D094A32F811009E
:10154000FEF78AFF05464FF06632064BFEF7A3FE14
:10155000ECE700200146E9E7680000207200002067
:101560007C00002066664A3F10B5044609222146E9
:10157000144800F021F9134800F063F8092804DA50
:10158000104800F065F8002010BD092204F109019F
:101590000C4800F042F80B4800F05AF804F1090139
:1015A000204600F011F808B90020EDE7E07A207538
:1015B000207B6075217BE07A01EB002060820120B6
:1015C000E2E700009000002030B50446002200232E
:1015D000012004E00D5C1544EAB2451CE8B208287D
:1015E000F8DBC2F58070C3B2087A984201D10120BD
:1015F00030BD0020FCE7FF210170012141708621F0
:1016000081700021C170017141718171C1717921B5
:101610000172002101754175704770B504460E4690
:10162000154604F13A0000F0BFFDA84201DA00209F
:1016300070BD2A46314604F13A0000F079FD0120E0
:10164000F6E710B5044604F13A0000F0ADFD10BD18
:1016500010B5044604F13A0000F0A9FD10BD0000E9
:1016600038B5044640F22551D4F88C00FFF7A3FCAE
:1016700088B1D4F88C00FFF759FDC0B269460090DC
:1016800004F13A0000F03CFD40F22551D4F88C0002
:10169000FFF760FC00BF40F22771D4F88C00FFF721
:1016A0008AFCE0B1204600F07FFD002809DD1E49DC
:1016B000204600F00FFD1C490978D4F88C00FFF794
:1016C0003AFD204600F070FD48B9002240F2277133
:1016D000D4F88C00FFF799FC002084F8980040F2C1
:1016E0002661D4F88C00FFF766FCE0B1204600F0DC
:1016F0005BFD002809DD0D49204600F0EBFC0B499D
:101700000978D4F88C00FFF716FD204600F04CFD58
:1017100048B9002240F22661D4F88C00FFF775FC2E
:10172000002084F8980038BD01000020020000204D
:1017300070B50446D4F89000FFF740F9012839D17C
:101740008834E068FFF77AF8A068FFF769F854F882
:1017500088090021FFF780F8204600F025FD0028C9
:1017600025DD204600F020FD142810DC204600F086
:101770001BFDD4F888104860204600F015FD054692
:101780002A4604F17401204600F0D2FC09E014203E
:10179000D4F888104860142204F17401204600F047
:1017A000C7FC0121D4F88800FFF756F802E00020BA
:1017B00084F8980070BD00002DE9F04104460E4603
:1017C0001546AAB23146204600F0CFFC94F89900A5
:1017D00078B394F8980060BB204600F0E5FC002840
:1017E00027DD012084F89800204600F0DDFC142855
:1017F00010DC204600F0D8FCD4F888104860204661
:1018000000F0D2FC07463A4604F17401204600F08D
:101810008FFC09E01420D4F888104860142204F1E9
:101820007401204600F084FC0121D4F88800FFF701
:1018300013F894F8990020BB94F8980008BB204650
:1018400000F0B2FC00281CDD54F88C0F40F2266139
:10185000FFF780FB012240F226612068FFF7D5FBED
:1018600040212068FFF79AFB012020738C3C064939
:10187000204600F02FFC04490978D4F88C00FFF7CB
:101880005AFC0120BDE8F081000000202DE9F04F56
:1018900093B004460E4692469B461C9F204600F09D
:1018A0008BFC044604F13A0000F086FCA0F13A04F7
:1018B000002084F8980084F899B0032084F89A00F6
:1018C00018208DF84B0003208DF84A008DF8460053
:1018D00004208DF84700012E34D1C648C4F88C008E
:1018E0004FF0250894F8990048B1C34844F8880F90
:1018F0004FF00E097003A0604010E060883CBF48C4
:101900000460012F10D1012144F20900FFF7D0F942
:1019100001210420FFF712F94020ADF84800802093
:10192000ADF84400B64D9FE0012144F20500FFF7F9
:10193000BFF94FF40070ADF848004000ADF8440026
:10194000B04D91E0022E3AD1AF48C4F88C004FF070
:10195000260894F8990050B1A7483C3044F8880F05
:101960004FF011098004A0604010E060883CA74857
:101970000460012F13D101214804FFF789F90121E7
:101980002120FFF795F901210820FFF7D7F8202043
:10199000ADF848004020ADF844009D4D64E00121C1
:1019A0004804FFF775F901210520FFF781F90420AC
:1019B000ADF848000820ADF84400924D54E0032EE5
:1019C00052D19448C4F88C004FF0270894F899003D
:1019D00050B18948283844F8880F4FF00C0920206E
:1019E000A0601020E060883C8B480460012F13D178
:1019F00001218804FFF74CF901211120FFF758F964
:101A000001218648FFF79AF8B802ADF84800400077
:101A1000ADF84400824D27E0112F15D10121880433
:101A2000FFF736F901212120FFF742F901217B4818
:101A30002030FFF783F84FF48070ADF84800400085
:101A4000ADF84400724D0FE001218804FFF720F942
:101A500001210920FFF72CF94FF48060ADF8480010
:101A60004000ADF84400664D12A92846FEF7DAFFA3
:101A700011A92846FEF7D6FFCDF834A02298ADF87C
:101A800038002398ADF83A002198ADF83C000020CA
:101A9000ADF840000C20ADF83E0054F88C0F0DA9B5
:101AA000FFF7D8FA01212068FFF763FA607B8C3CCE
:101AB00000283FD001228021D4F88C00FFF765FA7E
:101AC00001210846FFF7D4F8D4F88C00001D0190DE
:101AD00004F17400029010200390002004900590FF
:101AE000802006900020079008900990209820B14F
:101AF000012806D002280CD107E04FF440500A908C
:101B00000AE04FF400500A9006E04FF480500A902B
:101B100002E000200A9000BF00BF00200B9001A946
:101B2000D4F88800FEF760FF0021D4F88800FEF7A3
:101B300093FE06E0002240F22661D4F88C00FFF705
:101B400064FA1D9830B1012809D002280CD004286D
:101B50000FD113E04FF4E060FFF774F813E04FF497
:101B6000C060FFF76FF80EE04FF4A060FFF76AF86F
:101B700009E04FF48060FFF765F804E04FF440702F
:101B8000FFF760F800BF00BF8DF830801E988DF819
:101B900031001F988DF8320001208DF833000CA819
:101BA000FFF718F8012240F22551D4F88C00FFF716
:101BB0002CFA94F89900C0B18DF830901E988DF8E9
:101BC00031001F988DF832000CA8FFF703F854F885
:101BD000880F006840F002002168086020680068F3
:101BE00040F0080054F888190860204613B0BDE89A
:101BF000F08F000000380140440002401C0000202B
:101C0000000C01400008014000440040200000207A
:101C1000001401400048004024000020100014007F
:101C2000001001400D4AD0F88C10914203D10021E0
:101C30000B4A116010E00B4AD0F88C10914203D18E
:101C40000021094A116007E0084AD0F88C1091423F
:101C500002D10021064A116070470000003801409F
:101C60001C000020004400402000002000480040EC
:101C70002400002038B5044601210420FFF718F89D
:101C80001020ADF8000003208DF8020010208DF820
:101C9000030069460448FEF7C5FE10210248FEF71E
:101CA00095FF204638BD0000000801402DE9F041B5
:101CB000074690460E460025102000F0D5F9040096
:101CC0000BD0C4F80C80C4E90176FEF74DFC016826
:101CD000216004602846BDE8F0810125FAE72DE97E
:101CE000F0410646FEF740FC804613E026B1E0686E
:101CF000B04201D025460EE020682860D4E90101F9
:101D0000D8F800708847204600F0A6F8D8F8000000
:101D1000B84200D045462C68002CE7D1BDE8F081E0
:101D200002E008C8121F08C1002AFAD170477047A4
:101D3000002001E001C1121F002AFBD17047000002
:101D400000B50248FFF76AFA00BD00002800002035
:101D500000B50248FFF7C0FA00BD00007C02002079
:101D600010B588B000200323CDE904300690079019
:101D7000012007211A460023CDE90032CDE90210E7
:101D80004FF4E13201461B48FFF780FD04461A4A32
:101D90001A49FFF78BFF1A48FFF72DFC0020032399
:101DA000CDE9043006900790012007211A46002350
:101DB000CDE90032CDE902104FF41652032111484B
:101DC000FFF764FD04460C4A0C49FFF76FFFFF2044
:101DD00003900490059006900090019003460246FF
:101DE000092102900848FFF785FA0848FFF742FFEB
:101DF00008B010BD2C01002000000008251C0008C0
:101E0000C8010020E0010020180000201900002077
:101E100010B588B000200323CDE904300690079068
:101E2000012007211A460023CDE90032CDE9021036
:101E300042F2F03202210548FFF728FD0446044A29
:101E40000449FFF733FF08B010BD000090000020E8
:101E500000000008251C000810B5002821D0114BF7
:101E60000022001F196803E0814203D80A4649682E
:101E70000029F9D152B11368841A9C4204D1006838
:101E800018441060104602E0506000E0186039B15C
:101E900002680B1A934203D10B681A440260496826
:101EA000416010BD600000201CB50125C9E06548F7
:101EB000FFF7C7FB07282ADD082269466148FFF7BC
:101EC000ACFB6048FFF7C4FB69465F48FFF7B8F911
:101ED0005E49087008460078022801D1022516E004
:101EE0005A480078032801D1032510E057480078AC
:101EF000012801D101250AE054480078FF2801D1CA
:101F0000FF2504E051480078BB2800D1BB2550488C
:101F1000FFF797FB072817DD082269464C48FFF7B3
:101F20007CFB69464848FFF78BF94849087008462A
:101F30000078022801D1022506E0444800780328F1
:101F400001D1032500E00125032D2AD004DC012D59
:101F50004BD0022D74D104E0BB2D55D0FF2D6FD195
:101F600044E03C48FFF700FB09213B48FFF7D6FA65
:101F700080460022394BFEF78EF90646FEF779FAC5
:101F800000F0FF0A3348427D017D53462E48FFF79B
:101F90007EF90446142221462A48FFF70DFC01254C
:101FA0004EE02C48FFF7E0FA09212B48FFF7B6FA7C
:101FB00080460022294BFEF76EF90646FEF759FAD5
:101FC00000F0FF0A2348427D017D53461E48FFF77B
:101FD0005EF90446142221461A48FFF7EDFB4FF440
:101FE000FA611F48FFF7F4F82AE029E0FF231A46B8
:101FF00019461548FFF74BF90446142221461148AB
:10200000FFF7DAFB01251BE0002416E000BF1021DA
:102010001448FEF7DDFD00BF64211148FFF7D8F832
:1020200000BF10210F48FEF7D1FD00BF64210C480E
:10203000FFF7CEF80125601CC4B20F2CE6DB00BF11
:1020400000BF34E72C0100207C0200201A00002091
:10205000E0010020C80100201800002000005940C5
:102060002800002000080140F0B50B30154D20F08D
:1020700007010024144A0FE003688B420BD38B4204
:1020800005D95E1A43184768C3E9006700E0436852
:10209000136002C004E0021D10680028ECD1204645
:1020A000002802D1286808B10020F0BD064A074880
:1020B0001060074A121A22F00702C0E9002401202A
:1020C0002860D7E76400002060000020AC020020F8
:1020D000A80400200246908E002801DC00207047F2
:1020E000D38E581CD086D05C0870D08E538E984208
:1020F00001DB0020D086908E401E90860120EEE706
:1021000010B50246908E538E984201DB002010BD20
:102110000B78148F601C10871355108F538E9842C4
:1021200001DB00201087908E401C90860120EEE796
:1021300030B50346988E904201DA002030BD002071
:102140000CE0DD8E6C1CDC865C5D0C54DC8E5D8EE0
:10215000AC4201DB0024DC86441CA0B29042F0DBE0
:10216000988E801A98860120E8E770B50346988E0D
:1021700010445C8EA04201DD002070BD00200CE008
:102180000D5C1E8F741C1C879D551C8F5D8EAC4290
:1021900001DB00241C87441CA0B29042F0DB988E27
:1021A000104498860120E8E70146888E7047002198
:1021B0008186C18601877047322141860021818650
:1021C000C186018770470000F82100080000002048
:1021D00068000000201D0008602200086800002040
:1021E00040080000301D000829FCFFFF75FBFFFFC1
:1021F00061FBFFFF4DFBFFFF00000000010002003C
:1022000004000800100020004000800001000200CF
:1022100000000000000000000000000000000000BE
:1022200000000000000000000000000000000000AE
:10223000000000000000000000000000000000009E
:10224000000000000102030401020304060708095C
:10225000020406080000000000000000000000006A
:04000005080000ED02
:00000001FF
