:020000040800F2
:10000000A80C0020050100080D0100080F010008E0
:10001000110100081301000815010008000000008C
:1000200000000000000000000000000017010008B0
:1000300019010008000000001B010008790C0008ED
:100040001F0100081F0100081F0100081F01000810
:100050001F0100081F0100081F0100081F01000800
:100060001F0100081F0100081F0100081F010008F0
:10007000A10500081F010008B90500081F010008BC
:100080001F010008D10500081F0100081F0100081A
:100090001F0100081F0100081F0100081F010008C0
:1000A0001F0100081F0100081F0100081F010008B0
:1000B0001F0100081F0100081F0100081F010008A0
:1000C0001F0100081F0100081F0100081F01000890
:1000D0001F010008F90C0008110D0008290D000887
:1000E0001F0100081F0100081F010008DFF810D0E1
:1000F00000F044FA00F038F80048004719290008D9
:10010000A80C00200648804706480047FEE7FEE7A7
:10011000FEE7FEE7FEE7FEE7FEE7FEE7FEE7FEE7B7
:10012000990C0008ED00000830B505462A460B463C
:1001300012F8010B13F8014B08B1A042F8D01CB122
:10014000002802D06D1CF1E7284630BD10B54843A9
:10015000044602F009FD002805D00021002C02D041
:10016000641E0155FAE710BD70B5054C054D03E05E
:10017000206820448047241DAC42F9D170BD0000A6
:100180006C2D0008782D00082DE9FE4F804681EA8D
:100190000300C00F0C46009021F0004123F0004501
:1001A000B8EB0200A94105D24046214690461C46C4
:1001B0000B46024623F00040104347D0270DC7F3FB
:1001C0000A00C3F30A510290401A019040286BDAEA
:1001D000C3F3130040F4801B0098924620B1002323
:1001E000D2EB030A63EB0B0B01985946C0F14002B6
:1001F000504600F02FF906460D4650465946019AE2
:1002000000F047F910EB08006141002487EA115221
:1002100084EAE7731A4340D0009A62B3019A012A34
:100220004FEA075215DC001B61EB02014FF0004260
:1002300002EA0752CDE90042001C41F58011324626
:100240002B4600F04DF903B0BDE8F08F4046214643
:10025000F9E7001B61EB0201001C41F58013001857
:100260005B412018A2F5001747EB030140EAD57067
:10027000B6196D4111E06D084FEA360645EAC075C2
:100280004FEA0752001B61EB0201001C41F580118F
:1002900049084FEA30000019514132462B4603B05D
:1002A000BDE8F04F00F00DB9009801224000002396
:1002B000D0EB020263EBE073009821464FEAE07452
:1002C000B8EB000061EB0401E9E783F000435BE772
:1002D00081F0004158E72DE9F04D81EA030404F074
:1002E000004B21F0004514464FF0000A23F0004176
:1002F00050EA050220D054EA01021DD0C5F30A5786
:100300000246C5F31303C1F31300C1F30A5640F4C8
:10031000801543F48013A7EB0608101BD64608F29D
:10032000FD3873EB050002D308F1010801E09218D3
:100330005B41B8F1000F03DA00200146BDE8F08D03
:1003400000204FF48011064684460EE0171B73EB25
:10035000050705D3121B63EB050306434CEA010CAA
:1003600049084FEA300092185B4150EA0107EDD18D
:1003700052EA030012D082EA040083EA050108432E
:1003800005D0101BAB4106D20122002306E000225B
:100390004FF0004302E06FF0010253101AEB060029
:1003A0004CEB085110EB0A0041EB0B01BDE8F04D9E
:1003B00000F087B80EB540F2334102910021CDE93B
:1003C00000110A460B4600F08BF803B000BD00F0A8
:1003D000004230F000400AD0C10D01F56071C0F359
:1003E000160042EA0151C20840071143704700203D
:1003F0000146704730B5041E71F1000404DB4FF074
:100400000044404264EB0101141E73F1000405DB5B
:100410001C464FF00043524263EB04038B4208BF7B
:10042000824230BD30B5041E71F1000404DB4FF090
:100430000044404264EB0101141E73F1000405DB2B
:100440001C464FF00043524263EB0403994208BF3D
:10045000904230BD202A04DB203A00FA02F100204D
:1004600070479140C2F1200320FA03F319439040F2
:100470007047202A04DB203A21FA02F0002170475D
:1004800021FA02F3D040C2F12002914008431946FC
:100490007047202A06DBCB17203A41FA02F043EAE4
:1004A000E07306E041FA02F3D040C2F1200291402D
:1004B0000843194670470000004870474C00002070
:1004C000704710B5141E73F1000408DA401C41F1A6
:1004D000000192185B411A4301D120F0010010BDC8
:1004E0002DE9F04D92469B4611B1B1FA81F202E03E
:1004F000B0FA80F220329046FFF7ACFF04460F4678
:1005000040EA0A0041EA0B0153465A46084313D019
:10051000114653EA010019D0C8F140025046FFF7D6
:10052000A8FF05460E46504659464246FFF792FF41
:10053000084305D0012004E020463946BDE8F08D8F
:100540000020054346EAE0762C4337430A986305CA
:10055000E40AA0EB08000022FD0A44EA47540A30EE
:1005600002D500200146E9E7010510196941DDE9DE
:10057000084500196941BDE8F04DA2E7064C074D5A
:1005800006E0E06840F0010394E807009847103463
:10059000AC42F6D3FFF7AEFD4C2D00086C2D0008E1
:1005A00010B50448006818B10248006801F01AF953
:1005B00010BD00001400002010B50448006818B1F8
:1005C0000248006801F00EF910BD00000C00002088
:1005D00010B50448006818B10248006801F002F93B
:1005E00010BD00001000002000F0805111B103493F
:1005F000086001E0024948607047000004040240BE
:100600000000024000F0805111B10349086001E090
:1006100002494860704700000404024000000240A4
:1006200021B1026842F00102026004E002684FF664
:10063000FE731A400260704701460020002201F05C
:10064000805313B1054B1A6801E0054B1A6802EAA2
:1006500001030BB1012000E00020704700040240BC
:100660000000024010B50022026847F6F0739A437A
:100670000C6A8B6823430C6923434C6923438C69C0
:100680002343CC6923434C6A23438C6A23431A4394
:100690000260CB6843600B6883604B68C36010BD29
:1006A0000149C860704700000020024030B5044690
:1006B00004254FF4302000F0A5F80546042D17D18D
:1006C0000C48006940F002000A490861084644618C
:1006D000006940F0400008614FF4302000F092F8CB
:1006E00005460448006941F6FD710840014908616A
:1006F000284630BD0020024004200B49C96801F0A3
:10070000010109B101200EE00749C96801F00401A7
:1007100009B1022007E00449C96801F0100109B1DC
:10072000032000E0042070470020024003480069D5
:1007300040F080000149086170470000002002403D
:1007400070B504460D460426F00200F05BF806463C
:10075000042E11D10948006940F0010007490861E1
:100760002580F00200F04EF806460448006941F684
:10077000FE71084001490861304670BD002002400A
:1007800078B506460C46042500200090E80200F0EB
:1007900039F80546042D24D11348006940F00100C2
:1007A000114908613480E80200F02CF80546042D58
:1007B00010D1B01C0090200C00990880E80200F0D5
:1007C00021F805460848006941F6FE7108400649CF
:1007D000086106E00448006941F6FE7108400249DC
:1007E0000861284678BD0000002002400248034905
:1007F0004860034848607047230167450020024075
:10080000AB89EFCD00B502460423FFF775FF034621
:1008100003E0FFF771FF0346521E012B01D1002AAE
:10082000F7D102B90523184600BD2DE9F041024673
:1008300000250026002000230024002791F803C093
:100840000CF00F0591F803C00CF0100CBCF1000F78
:1008500003D091F802C04CEA050591F800C0BCF144
:10086000000F31D0146800202BE04FF0010C0CFA7F
:1008700000F3B1F800C00CEA03069E4220D18300C9
:100880004FF00F0C0CFA03F7BC4305FA03FC4CEADB
:10089000040491F803C0BCF1280F06D14FF0010CFD
:1008A0000CFA00FCC2F814C00AE091F803C0BCF1D5
:1008B000480F05D14FF0010C0CFA00FCC2F810C033
:1008C000401C0828D1D31460B1F800C0BCF1FF0F60
:1008D00034DD546800202EE000F1080C4FF00108D0
:1008E00008FA0CF3B1F800C00CEA03069E4221D1CD
:1008F00083004FF00F0C0CFA03F7BC4305FA03FC1E
:100900004CEA040491F803C0BCF1280F05D100F1B2
:10091000080C08FA0CF8C2F8148091F803C0BCF176
:10092000480F07D100F1080C4FF0010808FA0CF845
:10093000C2F81080401C0828CED35460BDE8F08176
:10094000F0B50A46002300240021002500F00046EF
:10095000B6F1004F02D11D4EF16901E01B4E7168E6
:10096000C0F3034583B200F44016B6F5401F08D12A
:1009700021F07061154E766826F07066134F7E6028
:1009800012E000F48016B6F5801F06D1032606FAA1
:1009900005F4A14341F0706106E0460D360103FA0B
:1009A00006F6B14341F0706122B1460D360103FAFB
:1009B00006F6314300F00046B6F1004F02D1034E77
:1009C000F16101E0014E7160F0BD000000000140E6
:1009D000416170470161704770B5002100230F220B
:1009E000C47804B3154C246804F4E064C4F5E064EE
:1009F000210AC1F10403CA40447804FA03F184785F
:100A00001440214309010E4C0678A155047804F0E6
:100A10001F050124AC4005786D11AD0005F1E025FE
:100A2000C5F8004109E0047804F01F050124AC403A
:100A3000044D0678761145F8264070BD0CED00E0B7
:100A400000E400E080E100E002490143024A116055
:100A5000704700000000FA050CED00E029B1064ADD
:100A600052690243044B5A6104E0034A52698243CB
:100A7000014B5A61704700000010024029B1064A3C
:100A8000D2690243044BDA6104E0034AD26982432B
:100A9000014BDA61704700000010024029B1064A9C
:100AA00092690243044B9A6104E0034A92698243CB
:100AB000014B9A61704700000010024030B50021E0
:100AC0000022002400232D4D6D6805F00C0121B19A
:100AD000042905D0082923D105E0294D056022E02D
:100AE000274D05601FE0254D6D6805F47012234DFC
:100AF0006D6805F48034022505EB92421CB9214D46
:100B0000554305600BE01D4D6D6805F400351DB1C2
:100B10001C4D5543056002E0194D5543056002E048
:100B2000174D056000BF00BF144D6D6805F0F00162
:100B30000909154D6B5C0568DD4045600F4D6D681A
:100B400005F4E061090A104D6B5C4568DD40856085
:100B50000A4D6D6805F46051C90A0B4D6B5C456820
:100B6000DD40C560054D6D6805F44041890B074DBA
:100B70006B5CC568B5FBF3F5056130BD0010024044
:100B800000127A0000093D003800002048000020D3
:100B900010B500F001F810BD0CB5002001900090D8
:100BA0003348006840F480303149086000BF304865
:100BB000006800F4003000900198401C01900098FB
:100BC00018B90198B0F5A06FF1D12948006800F478
:100BD000003010B10120009001E00020009000984A
:100BE000012843D12348006840F0100021490860E3
:100BF0000846006820F0030008600846006840F0DE
:100C0000020008601A484068194948600846406870
:100C100048600846406840F4806048600846406884
:100C200020F47C1048600846406840F4E8104860B2
:100C30000846006840F08070086000BF0C480068FB
:100C400000F000700028F9D00948406820F0030047
:100C5000074948600846406840F00200486000BF0D
:100C60000348406800F00C000828F9D10CBD0000D2
:100C7000001002400020024010B5044A044B054910
:100C800003C9FFF781FA034A03C210BDCDCCCCCC17
:100C9000CCCCFC3F3000002010B51348006840F079
:100CA00001001149086008464068104908400E4993
:100CB0004860084600680E4908400B49086008462D
:100CC000006820F4802008600846406820F4FE0098
:100CD00048604FF41F008860FFF75AFF4FF0006034
:100CE0000449086010BD0000001002400000FFF839
:100CF000FFFFF6FE08ED00E010B50448006818B1EB
:100D00000248006800F006FD10BD00000C00002045
:100D100010B50448006818B10248006800F0FAFCF9
:100D200010BD00001000002010B50448006818B184
:100D30000248006800F0EEFC10BD00001400002026
:100D400010B50022002340F66A14A14200D100BF72
:100D50000A1201249440A3B2DC43048010BD21B1E7
:100D6000828942F40052828104E082894DF6FF7349
:100D70001A40828170471AB1838A0B43838202E052
:100D8000838A8B438382704702460020B1F5007F3F
:100D900000D100BF13880B400BB1012000E0002000
:100DA000704770B50246002400230025002040F65D
:100DB0006A16B14200D100BFC1F3421501F01F0312
:100DC000012606FA03F3012D02D19689334006E08D
:100DD000022D02D1168A334001E0968A33400C126C
:100DE000012606FA04F41688344013B10CB1012030
:100DF00000E0002070BDF0B5034600240026002569
:100E0000002040F66A17B94200D100BF1846C1F36E
:100E1000421401F01F06012707FA06F5012C01D143
:100E20000C3004E0022C01D1103000E014301AB173
:100E300007682F43076002E00768AF430760F0BD13
:100E40002DE9F04786B005460E460024A24600BFB5
:100E5000A1460027B08900B100BF2F462C8A4CF66E
:100E6000FF700440F08804432C82AC894EF6F310E6
:100E70000440B08831890843718908430443AC8138
:100E8000AC8A4FF6FF400440B0890443AC8201A80D
:100E9000FFF714FE1F48874202D1DDF810A001E0E1
:100EA000DDF80CA0A88900F4004040B10AEBCA00AC
:100EB00000EB0A1031684900B0FBF1F807E00AEBDB
:100EC000CA0000EB0A1031688900B0FBF1F8642019
:100ED000B8FBF0F004012009642101FB1089A88906
:100EE00000F4004040B1322000EBC900B0FBF1F04B
:100EF00000F00700044308E0322000EB09106421F1
:100F0000B0FBF1F000F00F0004432C8106B0BDE807
:100F1000F08700000038014001468888C0F30800CF
:100F20007047C1F308028280704701468888704785
:100F300038B504460120009004F108030422002182
:100F4000206800F06DFF06E02189206800F08EFF28
:100F50002089401E208120890028F5DC002120689E
:100F600000F084FF204600F005F8204600F034F839
:100F7000012038BD38B5044601200090231D002211
:100F80001146206800F04CFFA0884FF6FF718842A0
:100F90000BD10020A080E080208160810120A08111
:100FA000204600F019F8002038BD01200090A31D54
:100FB00002220021206800F033FF0120009004F19C
:100FC000080304220021206800F02AFF002060812D
:100FD0000120A08100BFE7E738B50446012000905A
:100FE000231D00221146206800F054FF01200090CC
:100FF000A31D02220021206800F04CFF0120009078
:1010000004F1080304220021206800F043FF0020BF
:1010100060810120A08138BD7CB504460D4616468E
:10102000A08808B900207CBD00200190012000901C
:101030006289A18901AB206800F0F2FEBDF80400CE
:101040004FF6FF71884204D10120A0810020608109
:10105000E9E76289A1892B46206800F0AFFEBDF860
:10106000040000EBD0714910A0EB410131B9608957
:10107000BDF804100844801C608105E06089BDF85B
:1010800004100844C01C6081012000906289A1897D
:1010900001AB206800F0C4FE6289A1893346206854
:1010A00000F08CFEBDF8040000EBD0714910A0EBFD
:1010B000410131B96089BDF804100844801C608189
:1010C00005E06089BDF804100844C01C608101205F
:1010D00000906289A18901AB206800F0A1FEA0897F
:1010E000218988420CDABDF804004FF6FF7188426E
:1010F00006D1A089401CA08100206081012092E7D8
:10110000012090E770B504460D4625602046FFF7A4
:1011100031FF204670BD00002DE9F0474FF0E0217F
:101120008869FFF747F906460022174BFFF7D3F807
:1011300004460D46154A164B164903C9FFF724F815
:10114000804622462B46FFF7C0F8134A03C21348D5
:1011500011490CC803C9FFF7B8F80446104A114BEF
:10116000FFF760F907D2094A094B0B4903C9FFF79A
:10117000ACF8094A03C2084903C9084A03C2064930
:1011800003C9BDE8F0870000882A6141CDCCCCCCF2
:10119000CCCCFC3F300000202000002028000020A4
:1011A00062105839B4C8FC3F2DE9FC5F83468A467B
:1011B000FFF7B2FF04460D4600BF5046FFF7FAF8AE
:1011C00006460F46FFF7A8FF22462B46CDE9000151
:1011D000FFF77BF8804632463B46FFF70BF9ECD32E
:1011E000BDE8FC9F2DE9FC5F83460C46FFF794FFAA
:1011F00005460E4600BF2046FFF7DCF807460022F2
:101200000A4BFFF768F881468A46FFF785FF0746D5
:101210002A463346FFF759F84A465346CDE90001BE
:10122000FFF7E8F8E7D3BDE8FC9F000000408F40DF
:101230002DE9FC5F83468A4616461F46FFF76CFF82
:1012400004460D46DAE90083424620462946FFF768
:101250003CF832463B46CDE90001FFF7E3F804D8FD
:10126000CAE900450120BDE8FC9F0020FBE7000023
:101270004FF0E021096921F004014FF0E0221161F3
:10128000034951611146096941F003011161704739
:101290004031F700F0B50C46059DFF210170CC21CF
:1012A000417000218170C17001710121417184710F
:1012B000C27103724572002104E0C67C475C3E4463
:1012C000C674491C1329F8DBF0BDF0B50446059D32
:1012D000FF202075AA2666750026A675E675267677
:1012E00001266676A176E27623776577002009E00D
:1012F0002726375D04F11406365C3E44F7B22726F4
:101300003755401C1328F3DB04F11400F0BDFEB583
:1013100005460C460020019002900090204600F007
:10132000EAF9C6B2072E2FDD01226946204600F0F9
:10133000CEF99DF80000FF2824D1012269462046FD
:1013400000F0C5F99DF80000DD2819D100BF204646
:1013500000F0D1F90628FADBFF208DF80400DD202B
:101360008DF8050006220DF10601204600F0AFF9C8
:10137000204600F0C7F901A9284600F007F8FEBD95
:101380000020FCE70020FAE70020F8E730B504462B
:101390000878FF281FD14878DD281CD188780006FE
:1013A000CA7800EB02400A7900EB02204A798318E0
:1013B000012B0FD10022002003E00D5C2A44451CC4
:1013C000E8B20728F9DBC879D5B2A84201D18879FB
:1013D00030BD00BF00BF0020FAE700002DE9F84350
:1013E00080460D4616461F4600200090002401222C
:1013F0006946384600F06BF99DF80000FF283ED1A1
:1014000064212048FFF7EEFE01226946384600F0CD
:101410005EF99DF8000003282FD101226946384665
:1014200000F055F909E09DF800002855601CC4B291
:1014300001226946384600F04AF99DF80000FF286D
:10144000F1D10020285501226946384600F03FF9C5
:10145000002409E09DF800003055601CC4B2012250
:101460006946384600F033F99DF80000FF28F1D1B5
:10147000002030550120BDE8F8830020FBE7002064
:10148000F9E70000180000202DE9F84307460C4654
:1014900015461E4676B1FF200346024629460090B7
:1014A0003846FFF712FF804642461421204601F0DD
:1014B00007F80EE0FF200346024629460090384612
:1014C000FFF7E8FE8046434614220021204600F044
:1014D000BFFFBDE8F8830146002006E0002301F1CC
:1014E0001402135400220A54401C1428F6DB084648
:1014F0007047000010B504461F496068884204D157
:1015000001210420FFF7CAFA34E01C4960688842D0
:1015100004D101210820FFF7C1FA2BE018496068C7
:10152000884204D101211020FFF7B8FA22E01549C2
:101530006068884204D101212020FFF7AFFA19E04A
:1015400011496068884204D101214020FFF7A6FAC2
:1015500010E00E496068884204D101218020FFF725
:101560009DFA07E00A496068884203D1012180158D
:10157000FFF794FA10BD000000080140000C014084
:10158000001001400014014000180140001C0140FF
:101590000020014070B504460D46002D07DD22896C
:1015A000074B33F812106068FFF714FA06E022893F
:1015B000034B33F812106068FFF70AFA70BD0000A1
:1015C0002A2D00082DE9F84304460F4615461E460D
:1015D000DDF82080267084F8018067602581204630
:1015E000FFF788FF074830F81500ADF800008DF8C8
:1015F00002808DF8036069466068FFF716F920469F
:10160000BDE8F8832A2D00080FB501A90EC980E8AE
:101610000E0005A90EC9C0E90423C16004B000BDD5
:1016200010B504460922211D206800F01FF920682A
:1016300000F061F8092804DA206800F063F800205F
:1016400010BD092204F10D01206800F040F8206867
:1016500000F058F804F10D01204600F00EF808B92A
:101660000020EDE7E07B2076207C6076217CE07B2B
:1016700001EB0020E0820120E2E730B504460022C1
:101680000023012004E00D5C1544EAB2451CE8B2D9
:101690000828F8DBC2F58070C3B2087A984201D1FD
:1016A000012030BD0020FCE70160FF220271012310
:1016B0004371862383710023C37103724372837263
:1016C000C37279230373002202764276704770B5A5
:1016D00004460E46154604F13A0001F017FBA842F5
:1016E00001DA002070BD2A46314604F13A0001F0CB
:1016F000CDFA0120F6E710B5044604F13A0001F0F6
:1017000005FB10BD10B5044604F13A0001F001FBE1
:1017100010BD000038B5044640F22551D4F88C00C5
:10172000FFF73FFB88B1D4F88C00FFF7F5FBC0B2A0
:101730006946009004F13A0001F08EFA40F225511A
:10174000D4F88C00FFF7FCFA00BF40F22771D4F800
:101750008C00FFF726FBE0B1204601F0D7FA002805
:1017600009DD1E49204601F05FFA1C490978D4F8CA
:101770008C00FFF7D6FB204601F0C8FA48B90022DA
:1017800040F22771D4F88C00FFF735FB002084F875
:10179000980040F22661D4F88C00FFF702FBE0B11C
:1017A000204601F0B3FA002809DD0D49204601F07A
:1017B0003BFA0B490978D4F88C00FFF7B2FB2046BE
:1017C00001F0A4FA48B9002240F22661D4F88C0056
:1017D000FFF711FB002084F8980038BD01000020BD
:1017E0000200002070B50446D4F89000FEF724FFF4
:1017F000012839D18834E068FEF704FFA068FEF7BD
:10180000F3FE54F888090021FEF70AFF204601F094
:101810007DFA002825DD204601F078FA142810DC36
:10182000204601F073FAD4F888104860204601F091
:101830006DFA05462A4604F17401204601F026FAA5
:1018400009E01420D4F888104860142204F17401CF
:10185000204601F01BFA0121D4F88800FEF7E0FED3
:1018600002E0002084F8980070BD00002DE9F041EE
:1018700004460E461546AAB23146204601F025FA26
:1018800094F8990078B394F8980060BB204601F072
:101890003DFA002827DD012084F89800204601F059
:1018A00035FA142810DC204601F030FAD4F88810FC
:1018B0004860204601F02AFA07463A4604F17401CE
:1018C000204601F0E3F909E01420D4F888104860BC
:1018D000142204F17401204601F0D8F90121D4F852
:1018E0008800FEF79DFE94F8990020BB94F89800BC
:1018F00008BB204601F00AFA00281CDD54F88C0FC2
:1019000040F22661FFF71CFA012240F226612068AE
:10191000FFF771FA40212068FFF736FA01202073A3
:101920008C3C0649204601F07FF904490978D4F837
:101930008C00FFF7F6FA0120BDE8F08100000020DE
:101940002DE9F04F93B004460E4692469B461C9FED
:10195000204601F0E3F9044604F13A0001F0DEF913
:10196000A0F13A04002084F8980084F899B003208C
:1019700084F89A0018208DF84B0003208DF84A0057
:101980008DF8460004208DF84700012E34D1C6485A
:10199000C4F88C004FF0250894F8990048B1C3486A
:1019A00044F8880F4FF00E097003A0604010E0600B
:1019B000883CBF480460012F10D1012144F2090086
:1019C000FFF76CF801210420FEF7BAFF4020ADF8C4
:1019D00048008020ADF84400B64D9FE0012144F25C
:1019E0000500FFF75BF84FF40070ADF848004000C9
:1019F000ADF84400B04D91E0022E3AD1AF48C4F8A2
:101A00008C004FF0260894F8990050B1A7483C305C
:101A100044F8880F4FF011098004A0604010E06086
:101A2000883CA7480460012F13D101214804FFF727
:101A300025F801212120FFF731F801210820FEF7C8
:101A40007FFF2020ADF848004020ADF844009D4DB8
:101A500064E001214804FFF711F801210520FFF798
:101A60001DF80420ADF848000820ADF84400924D60
:101A700054E0032E52D19448C4F88C004FF027084C
:101A800094F8990050B18948283844F8880F4FF0ED
:101A90000C092020A0601020E060883C8B48046086
:101AA000012F13D101218804FEF7E8FF0121112045
:101AB000FEF7F4FF01218648FEF742FFB802ADF8B9
:101AC00048004000ADF84400824D27E0112F15D1A9
:101AD00001218804FEF7D2FF01212120FEF7DEFF5D
:101AE00001217B482030FEF72BFF4FF48070ADF8CA
:101AF00048004000ADF84400724D0FE00121880419
:101B0000FEF7BCFF01210920FEF7C8FF4FF48060FB
:101B1000ADF848004000ADF84400664D12A92846D3
:101B2000FEF783FE11A92846FEF77FFECDF834A00C
:101B30002298ADF838002398ADF83A002198ADF816
:101B40003C000020ADF840000C20ADF83E0054F8F9
:101B50008C0F0DA9FFF774F901212068FFF7FFF83A
:101B6000607B8C3C00283FD001228021D4F88C007F
:101B7000FFF701F901210846FEF770FFD4F88C0049
:101B8000001D019004F174000290102003900020C9
:101B900004900590802006900020079008900990FE
:101BA000209820B1012806D002280CD107E04FF47C
:101BB00040500A900AE04FF400500A9006E04FF4BB
:101BC00080500A9002E000200A9000BF00BF002071
:101BD0000B9001A9D4F88800FEF744FD0021D4F849
:101BE0008800FEF71DFD06E0002240F22661D4F8D1
:101BF0008C00FFF700F91D9830B1012809D00228A8
:101C00000CD004280FD113E04FF4E060FEF71CFF66
:101C100013E04FF4C060FEF717FF0EE04FF4A06032
:101C2000FEF712FF09E04FF48060FEF70DFF04E0BD
:101C30004FF44070FEF708FF00BF00BF8DF8308002
:101C40001E988DF831001F988DF8320001208DF814
:101C500033000CA8FEF7C0FE012240F22551D4F853
:101C60008C00FFF7C8F894F89900C0B18DF8309057
:101C70001E988DF831001F988DF832000CA8FEF7E1
:101C8000ABFE54F8880F006840F00200216808603D
:101C90002068006840F0080054F888190860204661
:101CA00013B0BDE8F08F000000380140440002404E
:101CB0000C000020000C01400008014000440040DE
:101CC00010000020001401400048004014000020D3
:101CD00010001400001001400D4AD0F88C10914201
:101CE00003D100210B4A116010E00B4AD0F88C1090
:101CF000914203D10021094A116007E0084AD0F857
:101D00008C10914202D10021064A116070470000F8
:101D1000003801400C00002000440040100000206A
:101D2000004800401400002070B506460C4600250F
:101D3000002001E06D1C401C215C0029FAD12A46DC
:101D400021463046FFF792FD304670BD13B504467C
:101D5000012201A92046FFF789FD20461CBDFEB5E2
:101D600006460C4600270025002C01DA01276442B4
:101D700000BF681CC5B20A2094FBF0F100FB1140C3
:101D80003030C0B2C5F10A010DF801000A2094FB01
:101D9000F0F4002CEDD1012F07D12D21681CC0B229
:101DA0000546C0F10A000DF800100DF10A00411BB4
:101DB0002A463046FFF75AFD3046FEBDF0B50646CE
:101DC000144600220025706800EB81202044425B0D
:101DD0001019B0F5806F01DD0020F0BDAD1C9446F8
:101DE00016E0706800EB81202044475B38121870C1
:101DF0005F70AD1C901E82B29B1C012A08D17068D6
:101E000000EB81202044475B1F70501E82B25B1C98
:101E1000002AE6DC00201870A3EB0C030120DCE7AD
:101E2000F0B505460C46059E3146287870B10AE0AB
:101E3000686800EB84208718701A37F81000188043
:101E40009B1C481E81B20029F2D10DE00AE06868AF
:101E500000EB84208718701A57F8200018809B1C0C
:101E6000481E81B20029F2D10120F0BD70B50546AF
:101E70000C46FEF7BBFC3520FEF712FC696801EB4F
:101E80008420FEF713FC08B9002070BDFEF74EFC5D
:101E90000120FAE72DE9F04706460C46174698461A
:101EA000DDF8209007EB0900B0F5806F02DD00201F
:101EB000BDE8F0874D46FEF799FC57B93520FEF78F
:101EC000EFFB716801EB8420FEF7F0FB08B90020FE
:101ED000EEE73078B8B113E0726802EB8422D319D0
:101EE000A9EB050203EB4200B8F80010FEF728FC4E
:101EF000042801D00020DBE708F10208681E85B243
:101F0000002DE9D116E013E0726802EB8422D319A8
:101F1000A9EB050203EB8200B8F80010FEF730FCD5
:101F2000042801D00020C3E708F10208681E85B22A
:101F3000002DE9D1FEF7FAFB0120B9E7C1F309034F
:101F400023B1C1F30903C3F58063194441600270F2
:101F5000704700002DE9F04104460D46204600F090
:101F600094FB0EA12068FFF7DFFE80462946FFF7AD
:101F7000F6FE06460DA1FFF7D7FE0D4B0DA20FA1F1
:101F8000204600F051F807460CA1384600F0A0FBAF
:101F900010B10120BDE8F0810020FBE741542B4344
:101FA00049505345525645523D312C000D0A000010
:101FB000000040404552524F520000004F4B00007D
:101FC0002DE9F04104460D46204600F05EFB0EA1CF
:101FD0002068FFF7A9FE80462946FFF7C0FE0646A7
:101FE0000CA1FFF7A1FE0C4B0CA20EA1204600F0A5
:101FF0001BF807460BA1384600F06AFB10B1012020
:10200000BDE8F0810020FBE741542B434950535475
:102010004F3D00000D0A0000000040404552524F65
:10202000520000004F4B00002DE9F04F85B00446F0
:102030008B4691469A46FFF76FF805460E4623E019
:1020400010E0012204A92068FFF741FB9DF8100071
:1020500000B907E09DF8100003A90390201D00F0CF
:10206000B9FD00BF2068FFF746FB0028E9DC5946B0
:1020700004F10C0000F02CFB28B9494604F10C00D7
:1020800000F026FB00B112E05046FEF7A0F9CDE9C2
:102090000201FFF741F807462A463346FEF715F9D5
:1020A000CDE90001DDE90223FEF7A4F9C8D300BFA2
:1020B000201D00F0A9FD002806DD002003A90390E3
:1020C000201D00F087FD00BF04F10C0005B0BDE845
:1020D000F08F2DE9F74F84B082469346FFF71CF846
:1020E0008046894620E012E0012202A9DAF80000C9
:1020F000FFF7EDFA9DF8080000B908E09DF8080028
:1021000001A901900AF1040000F064FD00BFDAF8B3
:102110000000FFF7F0FA0028E6DC0AF10C00059950
:1021200000F0D6FA00B112E05846FEF750F9044626
:102130000D46FEF7F1FF42464B46CDE90001FEF7A2
:10214000C4F8064622462B46FEF754F9CBD300BF0F
:102150000AF1040000F058FD002807DD002001A965
:1021600001900AF1040000F035FD00BF0AF10C00F7
:1021700007B0BDE8F08F00002DE9FE4F04460F4682
:1021800015461E46204600F080FA1BA12068FFF786
:10219000CBFD1DA12068FFF7C7FD39460090FFF772
:1021A000C3FD1AA10190FFF7BFFD83462946FFF743
:1021B000BBFD824616A1FFF7B7FD81463146FFF70A
:1021C000CEFD804613A1FFF7AFFD134B13A215A15F
:1021D0002046FFF729FF02904FF47A711248FFF76B
:1021E00001F810A1029800F073FA10B10120BDE8C7
:1021F000FE8F0020FBE7000041542B43495053540D
:102200004152543D0000000022000000222C220018
:10221000222C00000D0A0000000040404552524FA1
:10222000520000004F4B00001800002070B504461B
:10223000204600F02AFA0CA12068FFF775FD06463B
:102240000CA1FFF771FD0C4B0CA20EA12046FFF76D
:10225000EBFE05460BA1284600F03AFA08B1012032
:1022600070BD0020FCE7000041542B43574D4F4404
:10227000453D32000D0A0000000040404552524FDB
:10228000520000004F4B000070B50446204600F09D
:10229000FCF90CA12068FFF747FD06460CA1FFF7EB
:1022A00043FD0C4B0CA20EA12046FFF7BDFE0546D8
:1022B0000BA1284600F00CFA08B1012070BD0020E7
:1022C000FCE7000041542B43574D4F44453D31003E
:1022D0000D0A0000000040404552524F52000000DD
:1022E0004F4B00002DE9F04104460D46204600F01A
:1022F000CCF90EA12068FFF717FD80462946FFF7AD
:102300002EFD06460CA1FFF70FFD0C4B0CA20EA1F3
:102310002046FFF789FE07460BA1384600F0D8F9A2
:1023200010B10120BDE8F0810020FBE741542B43B0
:1023300049504D55583D00000D0A00000000404036
:102340004552524F520000004F4B00002DE9F04122
:1023500005460E4617461C46DDF81880284600F054
:10236000D9F810B90020BDE8F0814FF47A71174810
:10237000FEF738FF0121284600F050F94FF47A713A
:102380001248FEF72FFF2846FFF77EFF4FF4FA7141
:102390000E48FEF727FF284600F026F903210B48D8
:1023A000FEF702FF3A463146284600F0CBF808B95E
:1023B0000020D8E74346224605A12846FFF7DCFE69
:1023C00008B90020CFE70120CDE700001800002069
:1023D0005443500070B505460E461446284600F09A
:1023E00099F808B9002070BD4FF47A711748FEF7CC
:1023F000F9FE2846FFF71AFF4FF4FA711348FEF76B
:10240000F1FE284600F0F0F803211048FEF7CCFE5C
:1024100001212846FFF766FF4FF47A710B48FEF75B
:10242000E1FE31462846FFF795FD4FF47A710748E3
:10243000FEF7D8FE21462846FFF7C2FD4FF47A7119
:102440000248FEF7CFFE0120CDE700001800002073
:102450002DE9F04704460D4616461F4605F13000AB
:10246000C5B2204600F011F90FA12068FFF75CFC0F
:1024700029462068FFF76AFC82460EA1FFF754FC4C
:1024800081463146FFF76BFC80460BA1FFF74CFC01
:1024900064210A48FEF7A6FE324639462068FFF757
:1024A000E5F9BDE8F087000041542B4349505345FE
:1024B0004E443D002C0000000D0A000018000020D2
:1024C0002DE9F04104460D461646204600F0DDF8A1
:1024D0000BA12068FFF728FC29462068FFF73FFC86
:1024E00007460AA1FFF720FC64210948FEF77AFE9F
:1024F0002A4631462068FFF7B9F9BDE8F0810000AF
:1025000041542B43495053454E443D000D0A0000B1
:102510001800002010B50446204600F0B6F805A1CA
:102520002068FFF701FC054A05A1204600F098F855
:1025300010BD000041540D0A0000000000004040A2
:102540004F4B00002DE9F05F04460F46154620462C
:1025500000F09BF819A12068FFF7E6FB1AA120689C
:10256000FFF7E2FB83463946FFF7DEFB814617A102
:10257000FFF7DAFB80462946FFF7D6FB064614A193
:10258000FFF7D2FB002605E04FF47A711148FEF701
:1025900029FE761C142EF7DB0F4B10A211A120464A
:1025A000FFF742FD82460DA1504600F091F810B1B0
:1025B0000020BDE8F09F0120FBE7000041542B43C1
:1025C000574A41503D00000022000000222C22000A
:1025D000220D0A0018000020000040404641494CEE
:1025E000000000004F4B000010B50446204600F0EC
:1025F0004CF805A12068FFF797FB064A06A1204684
:1026000000F02EF810BD000041542B5253540D0A17
:1026100000000000000040404F4B00002DE9F04159
:1026200004460D46204600F030F809A12068FFF767
:102630007BFB07462946FFF792FB064605A1FFF7FD
:1026400073FB054A05A1204600F00AF8BDE8F081B9
:10265000415445000D0A0000000040404F4B00006F
:102660002DE9F04104460D461646324629462046DD
:10267000FFF72FFD07462946384600F029F810B12C
:102680000120BDE8F0810020FBE770B5044620681A
:10269000FFF738F8002505E0002104F10C00415552
:1026A000681C85B2201D00F0AFFAA842F4DC201DA2
:1026B00000F0ADFA70BD70B504460D462560201DD2
:1026C00000F0AAFA041F2046FFF7DFFF204670BD86
:1026D00070B504460D4629462046FDF725FD70BD20
:1026E0002DE9F041074690460E460025102000F0E7
:1026F0003BFA04000BD0C4F80C80C4E90176FDF766
:10270000DBFE0168216004602846BDE8F0810125F8
:10271000FAE72DE9F0410646FDF7CEFE804613E0CC
:1027200026B1E068B04201D025460EE0206828605E
:10273000D4E90101D8F800708847204600F0C4F8B9
:10274000D8F80000B84200D045462C68002CE7D1EC
:10275000BDE8F08102E008C8121F08C1002AFAD1C2
:1027600070477047002001E001C1121F002AFBD111
:102770007047000000B50248FEF77AFD00BD00007A
:102780001800002000B50248FEF7A5FE00BD0000BD
:102790007C06002010B588B000200323CDE904306A
:1027A00006900790012007211A460023CDE9003248
:1027B000CDE9021003464FF4E13201463348FFF7FA
:1027C000BFF80446324A3349FFF78AFF002003234B
:1027D000CDE9043006900790012007211A46002316
:1027E000CDE90032CDE90210034642F2F032022177
:1027F0002948FFF7A5F80446254A2649FFF770FF48
:1028000000200323CDE90430069007900120072122
:102810001A460023CDE90032CDE9021003464FF4F9
:10282000E13203211D48FFF78BF80446184A194985
:10283000FFF756FF18491A48FEF736FF032010230A
:102840000B22184900901848FEF7BCFE0320102305
:102850000022164900901648FEF7B4FE0F491548AD
:10286000FFF729FF012214491448FFF767FB1349BA
:102870001348FEF747FC0C4A07CA8DE807000C48CE
:102880000EC81048FEF7C0FE08B010BD580000206A
:1028900000000008D91C0008F4000020900100206E
:1028A0002C0200200008014048020020000C0140DA
:1028B0005402002060020020009001080400002063
:1028C000540600206406002010B5002821D0114BCA
:1028D0000022001F196803E0814203D80A464968B4
:1028E0000029F9D152B11368841A9C4204D10068BE
:1028F00018441060104602E0506000E0186039B1E2
:1029000002680B1A934203D10B681A4402604968AB
:10291000416010BD5000002088B0002500210691C4
:102920000791002004900590029103910024042156
:102930000F20FDF70BFC04211420FDF707FC814656
:1029400004211420FDF702FC80467448FEF7EDFADE
:10295000F8B10BE040F2574071A34246494600905F
:102960007348FFF7F3FC08B1012406E042464946EC
:102970006A48FEF751FB0028ECD100BF94B9002251
:1029800042F228316A48FFF725FD6A48FEF7BAFE91
:1029900008E0002242F228316548FFF71BFD654838
:1029A000FEF7B0FE01216448FEF7F4FDB5E0614991
:1029B0006248FEF7ACFC0546CC2D43D006DC012D69
:1029C00009D0022D08D0032D76D142E0EE2D68D03B
:1029D000FF2DF9D171E09FE031E00022584B06A9AC
:1029E0005848FEF725FC18B35748FEF719FE7CB18E
:1029F000002000905448437E027E03214F48FEF79A
:102A000064FC0646324614214948FFF759FD0FE0A1
:102A1000002000904C48437E027E03214748FEF789
:102A200039FC06463346142200214148FFF710FDC9
:102A300040494248FEF76BFC012800D100E0CCE79A
:102A400000BF69E03548FEF773FA40484049086026
:102A500062E0FEF761FBCDE902011FE0354B424623
:102A600049463648FEF7BAFC80B149463948FFF777
:102A70005BF9824638A1FFF757F907464146FFF751
:102A800053F9064635A1FFF74FF908E00022344B11
:102A900002A92C48FEF7CCFB00B100E0DEE700BF46
:102AA0003AE0002242F228312148FFF793FC214806
:102AB000FEF728FE00242FE00EE034B101230322AC
:102AC0001B491E48FEF7E0FC05E0002303221849DD
:102AD0001A48FEF7D9FC1FE00022194B06A9194835
:102AE000FEF7A6FB10B11848FEF79AFD00221D4B19
:102AF00004A91448FEF79CFB68B134B101230322FA
:102B00000B490E48FEF7C0FC05E0002303220849EC
:102B10000A48FEF7B9FC00BF00BF48E75406002092
:102B20003132302E32372E3131392E3131350000ED
:102B30006002002090010020540200207C0600204A
:102B400000000840180000202C0200200400FA05B4
:102B50000CED00E058000020090000000A00000011
:102B600000003E4000004E40F0B50B30154D20F007
:102B700007010024144A0FE003688B420BD38B42F9
:102B800005D95E1A43184768C3E9006700E0436847
:102B9000136002C004E0021D10680028ECD120463A
:102BA000002802D1286808B10020F0BD064A074875
:102BB0001060074A121A22F00702C0E9002401201F
:102BC0002860D7E75400002050000020AC06002009
:102BD000A808002010B5024650881388984201DBEF
:102BE000002010BD0B78D488601CD08002F1080052
:102BF0000355D0881388984201DB0020D08050888C
:102C0000401C50800120ECE70146488870470021B5
:102C100041808180C18070474FF47A71018000212A
:102C200041808180C180704702465088002801DCC5
:102C3000002070479388581C908002F10800C05C07
:102C4000087090881388984201DB0020908050889B
:102C5000401E50800120ECE710B5024650881388D2
:102C6000984201DB002010BD0B78D488601CD08016
:102C700002F108000355D0881388984201DB002038
:102C8000D0805088401C50800120ECE730B50346CE
:102C90005888904201DA002030BD00200EE09D8867
:102CA0006C1C9C8003F10804645D0C549C881D8896
:102CB000AC4201DB00249C80441CA0B29042EEDBBD
:102CC0005888801A58800120E6E770B50346588876
:102CD00010441C88A04201DD002070BD00200EE0E1
:102CE0000D5CDE88741CDC8003F10804A555DC88CB
:102CF0001D88AC4201DB0024DC80441CA0B2904261
:102D0000EEDB5888104458800120E6E701464888E9
:102D10007047002141808180C1807047322101804D
:102D2000002141808180C1807047010002000400C1
:102D30000800100020004000800000010002000494
:102D4000000800100020004000800000782D0008DE
:102D5000000000205800000054270008D02D000873
:102D600058000020500C00006427000829FAFFFFDB
:102D700015FAFFFF01FAFFFF00000000000000004D
:102D80000000000000000000000000000000000043
:102D90000000000000000000000000000000000033
:102DA0000000000000000000000000000000000023
:102DB00000000000010203040102030406070809E1
:102DC00002040608000000000000000000000000EF
:04000005080000ED02
:00000001FF
