:020000040800F2
:10000000580C0020050100080D0100080F01000830
:10001000110100081301000815010008000000008C
:1000200000000000000000000000000017010008B0
:1000300019010008000000001B010008CD0A00089B
:100040001F0100081F0100081F0100081F01000810
:100050001F0100081F0100081F0100081F01000800
:100060001F0100081F0100081F0100081F010008F0
:10007000850500081F0100089D0500081F010008F4
:100080001F010008B50500081F0100081F01000836
:100090001F0100081F0100081F0100081F010008C0
:1000A0001F0100081F0100081F0100081F010008B0
:1000B0001F0100081F0100081F0100081F010008A0
:1000C0001F0100081F0100081F0100081F01000890
:1000D0001F0100084D0B0008650B00087D0B000890
:1000E0001F0100081F0100081F010008DFF810D0E1
:1000F00000F036FA00F02AF800480047751E0008A4
:10010000580C00200648804706480047FEE7FEE7F7
:10011000FEE7FEE7FEE7FEE7FEE7FEE7FEE7FEE7B7
:10012000ED0A0008ED00000830B505462A460B46EA
:1001300012F8010B13F8014B08B1A042F8D01CB122
:10014000002802D06D1CF1E7284630BD70B5054C83
:10015000054D03E0206820448047241DAC42F9D1BE
:1001600070BD00000C2100081C2100082DE9FE4F85
:10017000804681EA0300C00F0C46009021F0004148
:1001800023F00045B8EB0200A94105D240462146C4
:1001900090461C460B46024623F00040104347D0D1
:1001A000270DC7F30A00C3F30A510290401A0190C9
:1001B00040286BDAC3F3130040F4801B009892468A
:1001C00020B10023D2EB030A63EB0B0B01985946D5
:1001D000C0F14002504600F02FF906460D46504649
:1001E0005946019A00F047F910EB080061410024DC
:1001F00087EA115284EAE7731A4340D0009A62B347
:10020000019A012A4FEA075215DC001B61EB02013B
:100210004FF0004202EA0752CDE90042001C41F5CE
:10022000801132462B4600F04DF903B0BDE8F08F47
:1002300040462146F9E7001B61EB0201001C41F535
:10024000801300185B412018A2F5001747EB03014B
:1002500040EAD570B6196D4111E06D084FEA3606D7
:1002600045EAC0754FEA0752001B61EB0201001C12
:1002700041F5801149084FEA3000001951413246DA
:100280002B4603B0BDE8F04F00F00DB900980122F5
:1002900040000023D0EB020263EBE073009821469C
:1002A0004FEAE074B8EB000061EB0401E9E783F08A
:1002B00000435BE781F0004158E72DE9F04D81EA0A
:1002C000030404F0004B21F0004514464FF0000AEF
:1002D00023F0004150EA050220D054EA01021DD06B
:1002E000C5F30A570246C5F31303C1F31300C1F364
:1002F0000A5640F4801543F48013A7EB0608101B40
:10030000D64608F2FD3873EB050002D308F1010868
:1003100001E092185B41B8F1000F03DA00200146BA
:10032000BDE8F08D00204FF48011064684460EE0B3
:10033000171B73EB050705D3121B63EB050306437D
:100340004CEA010C49084FEA300092185B4150EA30
:100350000107EDD152EA030012D082EA040083EAD9
:100360000501084305D0101BAB4106D20122002332
:1003700006E000224FF0004302E06FF0010253104C
:100380001AEB06004CEB085110EB0A0041EB0B0195
:10039000BDE8F04D00F087B80EB540F23341029150
:1003A0000021CDE900110A460B4600F08BF803B09E
:1003B00000BD00F0004230F000400AD0C10D01F550
:1003C0006071C0F3160042EA0151C20840071143B0
:1003D000704700200146704730B5041E71F10004DB
:1003E00004DB4FF00044404264EB0101141E73F142
:1003F000000405DB1C464FF00043524263EB04034C
:100400008B4208BF824230BD30B5041E71F100043A
:1004100004DB4FF00044404264EB0101141E73F111
:10042000000405DB1C464FF00043524263EB04031B
:10043000994208BF904230BD202A04DB203A00FADE
:1004400002F1002070479140C2F1200320FA03F32B
:10045000194390407047202A04DB203A21FA02F029
:100460000021704721FA02F3D040C2F120029140EE
:10047000084319467047202A06DBCB17203A41FA79
:1004800002F043EAE07306E041FA02F3D040C2F121
:100490002002914008431946704700000048704709
:1004A00044000020704710B5141E73F1000408DAF0
:1004B000401C41F1000192185B411A4301D120F028
:1004C000010010BD2DE9F04D92469B4611B1B1FAE5
:1004D00081F202E0B0FA80F220329046FFF7ACFFE2
:1004E00004460F4640EA0A0041EA0B0153465A46C9
:1004F000084313D0114653EA010019D0C8F1400255
:100500005046FFF7A8FF05460E465046594642465C
:10051000FFF792FF084305D0012004E0204639464A
:10052000BDE8F08D0020054346EAE0762C433743D2
:100530000A986305E40AA0EB08000022FD0A44EAD9
:1005400047540A3002D500200146E9E70105101999
:100550006941DDE9084500196941BDE8F04DA2E7B0
:10056000064C074D06E0E06840F0010394E8070000
:1005700098471034AC42F6D3FFF7BCFDEC200008DE
:100580000C21000810B50448006818B10248006842
:1005900000F0D0FE10BD00000C00002010B5044893
:1005A000006818B10248006800F0C4FE10BD0000E9
:1005B0000400002010B50448006818B10248006823
:1005C00000F0B8FE10BD00000800002000F08051CF
:1005D00011B10349086001E002494860704700001A
:1005E000040402400000024000F0805111B10349B0
:1005F000086001E0024948607047000004040240BE
:100600000000024021B1026842F00102026004E0F1
:1006100002684FF6FE731A400260704701460020E0
:10062000002201F0805313B1054B1A6801E0054B1D
:100630001A6802EA01030BB1012000E000207047B4
:10064000000402400000024010B50022026847F694
:10065000F0739A430C6A8B6823430C6923434C69FB
:1006600023438C692343CC6923434C6A23438C6A1C
:1006700023431A430260CB6843600B6883604B6876
:10068000C36010BD2DE9F041024600250026002080
:1006900000230024002791F803C00CF00F0591F807
:1006A00003C00CF0100CBCF1000F03D091F802C095
:1006B0004CEA050591F800C0BCF1000F31D0146878
:1006C00000202BE04FF0010C0CFA00F3B1F800C051
:1006D0000CEA03069E4220D183004FF00F0C0CFA67
:1006E00003F7BC4305FA03FC4CEA040491F803C089
:1006F000BCF1280F06D14FF0010C0CFA00FCC2F837
:1007000014C00AE091F803C0BCF1480F05D14FF0C6
:10071000010C0CFA00FCC2F810C0401C0828D1D310
:100720001460B1F800C0BCF1FF0F34DD5468002044
:100730002EE000F1080C4FF0010808FA0CF3B1F8B4
:1007400000C00CEA03069E4221D183004FF00F0C3B
:100750000CFA03F7BC4305FA03FC4CEA040491F8D5
:1007600003C0BCF1280F05D100F1080C08FA0CF801
:10077000C2F8148091F803C0BCF1480F07D100F112
:10078000080C4FF0010808FA0CF8C2F81080401C61
:100790000828CED35460BDE8F0810000F0B50A46C9
:1007A000002300240021002500F00046B6F1004F90
:1007B00002D11D4EF16901E01B4E7168C0F3034583
:1007C00083B200F44016B6F5401F08D121F07061E5
:1007D000154E766826F07066134F7E6012E000F4C6
:1007E0008016B6F5801F06D1032606FA05F4A1434C
:1007F00041F0706106E0460D360103FA06F6B1439A
:1008000041F0706122B1460D360103FA06F631431C
:1008100000F00046B6F1004F02D1034EF16101E055
:10082000014E7160F0BD00000000014070B5002174
:1008300000230F22C47804B3154C246804F4E06448
:10084000C4F5E064210AC1F10403CA40447804FA03
:1008500003F184781440214309010E4C0678A15518
:10086000047804F01F050124AC4005786D11AD003B
:1008700005F1E025C5F8004109E0047804F01F0502
:100880000124AC40044D0678761145F8264070BD31
:100890000CED00E000E400E080E100E002490143EB
:1008A000024A1160704700000000FA050CED00E0FC
:1008B00029B1064A52690243044B5A6104E0034AD3
:1008C00052698243014B5A61704700000010024098
:1008D00029B1064AD2690243044BDA6104E0034AB3
:1008E000D2698243014BDA61704700000010024078
:1008F00029B1064A92690243044B9A6104E0034A13
:1009000092698243014B9A617047000000100240D7
:1009100030B500210022002400232D4D6D6805F024
:100920000C0121B1042905D0082923D105E0294D66
:10093000056022E0274D05601FE0254D6D6805F438
:100940007012234D6D6805F48034022505EB924248
:100950001CB9214D554305600BE01D4D6D6805F434
:1009600000351DB11C4D5543056002E0194D55433E
:10097000056002E0174D056000BF00BF144D6D68B3
:1009800005F0F0010909154D6B5C0568DD40456017
:100990000F4D6D6805F4E061090A104D6B5C456808
:1009A000DD4085600A4D6D6805F46051C90A0B4D44
:1009B0006B5C4568DD40C560054D6D6805F44041E0
:1009C000890B074D6B5CC568B5FBF3F5056130BD60
:1009D0000010024000127A0000093D0030000020A3
:1009E0004000002010B500F001F810BD0CB500204B
:1009F000019000903348006840F48030314908602D
:100A000000BF3048006800F4003000900198401C9E
:100A10000190009818B90198B0F5A06FF1D129485C
:100A2000006800F4003010B10120009001E00020C7
:100A300000900098012843D12348006840F010003E
:100A4000214908600846006820F003000860084655
:100A5000006840F0020008601A4840681949486080
:100A60000846406848600846406840F48060486036
:100A70000846406820F47C1048600846406840F40E
:100A8000E81048600846006840F08070086000BFC9
:100A90000C48006800F000700028F9D00948406850
:100AA00020F00300074948600846406840F0020013
:100AB000486000BF0348406800F00C000828F9D1E6
:100AC0000CBD0000001002400020024010B5044A96
:100AD000044B054903C9FFF749FB034A03C210BD94
:100AE000CDCCCCCCCCCCFC3F2800002010B513489A
:100AF000006840F00100114908600846406810494C
:100B000008400E494860084600680E4908400B49F5
:100B100008600846006820F48020086008464068A5
:100B200020F4FE0048604FF41F008860FFF75AFF72
:100B30004FF000600449086010BD00000010024042
:100B40000000FFF8FFFFF6FE08ED00E010B50448D6
:100B5000006818B10248006800F084FB10BD000076
:100B60000400002010B50448006818B1024800686D
:100B700000F078FB10BD00000800002010B504480C
:100B8000006818B10248006800F06CFB10BD00005E
:100B90000C00002010B50022002340F66A14A14288
:100BA00000D100BF0A1201249440A3B2DC430480A8
:100BB00010BD21B1828942F40052828104E0828911
:100BC0004DF6FF731A40828170471AB1838A0B4336
:100BD000838202E0838A8B4383827047024600202F
:100BE000B1F5007F00D100BF13880B400BB101208D
:100BF00000E00020704770B5024600240023002565
:100C0000002040F66A16B14200D100BFC1F3421580
:100C100001F01F03012606FA03F3012D02D1968984
:100C2000334006E0022D02D1168A334001E0968A55
:100C300033400C12012606FA04F41688344013B12E
:100C40000CB1012000E0002070BDF0B50346002487
:100C500000260025002040F66A17B94200D100BFE7
:100C60001846C1F3421401F01F06012707FA06F5E2
:100C7000012C01D10C3004E0022C01D1103000E035
:100C800014301AB107682F43076002E00768AF43CA
:100C90000760F0BD2DE9F04786B005460E460024FA
:100CA000A24600BFA1460027B08900B100BF2F4671
:100CB0002C8A4CF6FF700440F08804432C82AC89E7
:100CC0004EF6F3100440B088318908437189084317
:100CD0000443AC81AC8A4FF6FF400440B089044322
:100CE000AC8201A8FFF714FE1F48874202D1DDF84D
:100CF00010A001E0DDF80CA0A88900F4004040B18C
:100D00000AEBCA0000EB0A1031684900B0FBF1F8A9
:100D100007E00AEBCA0000EB0A1031688900B0FB5B
:100D2000F1F86420B8FBF0F004012009642101FB14
:100D30001089A88900F4004040B1322000EBC900BE
:100D4000B0FBF1F000F00700044308E0322000EBB4
:100D500009106421B0FBF1F000F00F0004432C8176
:100D600006B0BDE8F08700000038014001468888E1
:100D7000C0F308007047C1F308028280704700008A
:100D800010B51D4800F02EFF08B9002010BD4FF42B
:100D90007A711A4800F090F8174800F05FFE4FF49F
:100DA0007A71164800F088F80121134800F084FE9B
:100DB0004FF47A71114800F07FF811A1154800F046
:100DC0005BFD044614A100F057FD4FF47A710B4807
:100DD00000F072F811A10F4800F04EFD04460EA17C
:100DE00000F04AFD4FF47A71044800F065F80948B4
:100DF00000F030FA00BFC9E73C02002010000020DC
:100E000041542B4349505345525645523D312C389D
:100E100038383800A00100200D0A000041542B434F
:100E2000495053544F3D30002DE9F0474FF0E02139
:100E30008869FFF7B1FA06460022174BFFF73DFA23
:100E400004460D46154A164B164903C9FFF78EF99D
:100E5000804622462B46FFF72AFA134A03C213485C
:100E600011490CC803C9FFF722FA0446104A114B76
:100E7000FFF7CAFA07D2094A094B0B4903C9FFF722
:100E800016FA094A03C2084903C9084A03C20649B7
:100E900003C9BDE8F0870000882A6141CDCCCCCCE5
:100EA000CCCCFC3F280000201800002020000020AF
:100EB00062105839B4C8FC3F2DE9FC5F83460C46EC
:100EC000FFF7B2FF05460E4600BF2046FFF764FA63
:100ED000074600220A4BFFF7F0F981468A46FFF7E2
:100EE000A3FF07462A463346FFF7E1F94A46534631
:100EF000CDE90001FFF770FAE7D3BDE8FC9F0000E1
:100F000000408F404FF0E021096921F004014FF0CB
:100F1000E0221161034951611146096941F0030161
:100F2000116170474031F700FEB505460C460020C0
:100F3000019002900090204600F085F9C6B2072E7D
:100F40002FDD01226946204600F069F99DF8000076
:100F5000FF2824D101226946204600F060F99DF85F
:100F60000000DD2819D100BF204600F06CF90628EA
:100F7000FADBFF208DF80400DD208DF80500062245
:100F80000DF10601204600F04AF9204600F062F912
:100F900001A9284600F007F8FEBD0020FCE700206C
:100FA000FAE70020F8E730B504460878FF281FD19B
:100FB0004878DD281CD188780006CA7800EB02400A
:100FC0000A7900EB02204A798318022B0FD1002204
:100FD000002003E00D5C2A44451CE8B20728F9DB39
:100FE000C879D5B2A84201D1887930BD00BF00BF11
:100FF0000020FAE770B50446FF202075AA25657524
:101000000025A575E5752576022565760325A57667
:10101000E17622776377002009E027252E5D04F131
:1010200014052D5C3544EEB227252E55401C13289F
:10103000F3DB04F1140070BD70B50446FF20207589
:10104000AA2565750025A575E575257601256576C2
:10105000A576E17622776377002009E027252E5DCB
:1010600004F114052D5C3544EEB227252E55401CA5
:101070001328F3DB04F1140070BD70B50446FF20A3
:101080002075AA2565750025A575E57525760225C7
:1010900065760325A576E17622776377002009E05F
:1010A00027252E5D04F114052D5C3544EEB227256D
:1010B0002E55401C1328F3DB04F1140070BD000012
:1010C0002DE9F84F05460E4617461C46DDE90CABE8
:1010D000DDE90A894B463A4631462846FFF7ACFF20
:1010E000024614210090584600F052FD4FF47A71E8
:1010F0001648FFF7E1FE4FF47A711448FFF7DCFE63
:101100004B46424621462846FFF7B7FF02461421C8
:101110000090584600F03CFD4B463A463146284682
:10112000FFF78AFF142201460090504600F046F96E
:101130004B46424621462846FFF79FFF14220146B0
:101140000090504600F03AF9BDE8F88F10000020FA
:101150000146002006E0002301F11402135400228E
:101160000A54401C1428F6DB0846704710B50446A4
:1011700009222146144800F021F9134800F063F8D1
:10118000092804DA104800F065F8002010BD092293
:1011900004F109010C4800F042F80B4800F05AF83D
:1011A00004F10901204600F011F808B90020EDE72C
:1011B000E07A2075207B6075217BE07A01EB0020CE
:1011C00060820120E2E700005000002030B50446B4
:1011D00000220023012004E00D5C1544EAB2451C06
:1011E000E8B20828F8DBC2F58070C3B2087A9842EA
:1011F00001D1012030BD0020FCE7FF210170012159
:101200004170862181700021C1700171417181712D
:10121000C17179210172002101754175704770B566
:1012200004460E46154604F13A0000F04FFFA8426E
:1012300001DA002070BD2A46314604F13A0000F080
:1012400005FF0120F6E710B5044604F13A0000F06E
:101250003DFF10BD10B5044604F13A0000F039FF1F
:1012600010BD000038B5044640F22551D4F88C007A
:10127000FFF7C1FC88B1D4F88C00FFF777FDC0B24E
:101280006946009004F13A0000F0C6FE40F2255194
:10129000D4F88C00FFF77EFC00BF40F22771D4F831
:1012A0008C00FFF7A8FCE0B1204600F00FFF0028FB
:1012B00009DD1E49204600F097FE1C490978D4F844
:1012C0008C00FFF758FD204600F000FF48B90022CF
:1012D00040F22771D4F88C00FFF7B7FC002084F8A7
:1012E000980040F22661D4F88C00FFF784FCE0B14E
:1012F000204600F0EBFE002809DD0D49204600F0F5
:1013000073FE0B490978D4F88C00FFF734FD2046B2
:1013100000F0DCFE48B9002240F22661D4F88C00CF
:10132000FFF793FC002084F8980038BD01000020EE
:101330000200002070B50446D4F89000FFF76EF963
:10134000012839D18834E068FFF74EF9A068FFF72B
:101350003DF954F888090021FFF754F9204600F0C0
:10136000B5FE002825DD204600F0B0FE142810DC74
:10137000204600F0ABFED4F888104860204600F00C
:10138000A5FE05462A4604F17401204600F05EFEE3
:1013900009E01420D4F888104860142204F1740184
:1013A000204600F053FE0121D4F88800FFF72AF907
:1013B00002E0002084F8980070BD00002DE9F041A3
:1013C00004460E461546AAB23146204600F05DFEA0
:1013D00094F8990078B394F8980060BB204600F028
:1013E00075FE002827DD012084F89800204600F0D3
:1013F0006DFE142810DC204600F068FED4F888103A
:101400004860204600F062FE07463A4604F1740147
:10141000204600F01BFE09E01420D4F88810486034
:10142000142204F17401204600F010FE0121D4F8CA
:101430008800FFF7E7F894F8990020BB94F898002B
:1014400008BB204600F042FE00281CDD54F88C0F3B
:1014500040F22661FFF79EFB012240F226612068E0
:10146000FFF7F3FB40212068FFF7B8FB0120207352
:101470008C3C0649204600F0B7FD04490978D4F8B1
:101480008C00FFF778FC0120BDE8F081000000200F
:101490002DE9F04F93B004460E4692469B461C9FA2
:1014A000204600F01BFE044604F13A0000F016FE50
:1014B000A0F13A04002084F8980084F899B0032041
:1014C00084F89A0018208DF84B0003208DF84A000C
:1014D0008DF8460004208DF84700012E34D1C6480F
:1014E000C4F88C004FF0250894F8990048B1C3481F
:1014F00044F8880F4FF00E097003A0604010E060C0
:10150000883CBF480460012F10D1012144F209003A
:10151000FFF7EEF901210420FFF740F94020ADF874
:1015200048008020ADF84400B64D9FE0012144F210
:101530000500FFF7DDF94FF40070ADF848004000FA
:10154000ADF84400B04D91E0022E3AD1AF48C4F856
:101550008C004FF0260894F8990050B1A7483C3011
:1015600044F8880F4FF011098004A0604010E0603B
:10157000883CA7480460012F13D101214804FFF7DC
:10158000A7F901212120FFF7B3F901210820FFF776
:1015900005F92020ADF848004020ADF844009D4DED
:1015A00064E001214804FFF793F901210520FFF7CA
:1015B0009FF90420ADF848000820ADF84400924D92
:1015C00054E0032E52D19448C4F88C004FF0270801
:1015D00094F8990050B18948283844F8880F4FF0A2
:1015E0000C092020A0601020E060883C8B4804603B
:1015F000012F13D101218804FFF76AF9012111207D
:10160000FFF776F901218648FFF7C8F8B802ADF870
:1016100048004000ADF84400824D27E0112F15D15D
:1016200001218804FFF754F901212120FFF760F917
:1016300001217B482030FFF7B1F84FF48070ADF8FE
:1016400048004000ADF84400724D0FE001218804CD
:10165000FFF73EF901210920FFF74AF94FF48060B6
:10166000ADF848004000ADF84400664D12A9284688
:10167000FFF708F811A92846FFF704F8CDF834A0C1
:101680002298ADF838002398ADF83A002198ADF8CB
:101690003C000020ADF840000C20ADF83E0054F8AE
:1016A0008C0F0DA9FFF7F6FA01212068FFF781FAE8
:1016B000607B8C3C00283FD001228021D4F88C0034
:1016C000FFF783FA01210846FFF7F2F8D4F88C00FF
:1016D000001D019004F1740002901020039000207E
:1016E00004900590802006900020079008900990B3
:1016F000209820B1012806D002280CD107E04FF431
:1017000040500A900AE04FF400500A9006E04FF46F
:1017100080500A9002E000200A9000BF00BF002025
:101720000B9001A9D4F88800FEF78EFF0021D4F8B1
:101730008800FEF767FF06E0002240F22661D4F839
:101740008C00FFF782FA1D9830B1012809D00228D9
:101750000CD004280FD113E04FF4E060FFF79EF89F
:1017600013E04FF4C060FFF799F80EE04FF4A0606B
:10177000FFF794F809E04FF48060FFF78FF804E07A
:101780004FF44070FFF78AF800BF00BF8DF830803B
:101790001E988DF831001F988DF8320001208DF8C9
:1017A00033000CA8FFF742F8012240F22551D4F88B
:1017B0008C00FFF74AFA94F89900C0B18DF8309088
:1017C0001E988DF831001F988DF832000CA8FFF795
:1017D0002DF854F8880F006840F002002168086076
:1017E0002068006840F0080054F888190860204616
:1017F00013B0BDE8F08F0000003801404400024003
:1018000004000020000C014000080140004400409A
:101810000800002000140140004800400C00002097
:1018200010001400001001400D4AD0F88C109142B5
:1018300003D100210B4A116010E00B4AD0F88C1044
:10184000914203D10021094A116007E0084AD0F80B
:101850008C10914202D10021064A116070470000AD
:10186000003801400400002000440040080000202F
:10187000004800400C00002070B506460C460025CC
:10188000002001E06D1C401C215C0029FAD12A4691
:1018900021463046FFF792FD304670BD13B5044631
:1018A000012201A92046FFF789FD20461CBDFEB597
:1018B00006460C4600270025002C01DA0127644269
:1018C00000BF681CC5B20A2094FBF0F100FB114078
:1018D0003030C0B2C5F10A010DF801000A2094FBB6
:1018E000F0F4002CEDD1012F07D12D21681CC0B2DE
:1018F0000546C0F10A000DF800100DF10A00411B69
:101900002A463046FFF75AFD3046FEBD2DE9F04F1E
:1019100085B004468B4691469A46FFF785FA054600
:101920000E4623E010E0012204A92068FFF777FCAF
:101930009DF8100000B907E09DF8100003A903907E
:10194000201D00F027FB00BF2068FFF77CFC00286B
:10195000E9DC594604F10C0000F094F928B9494635
:1019600004F10C0000F08EF900B112E05046FEF7D1
:1019700020FDCDE90201FFF757FA07462A46334614
:10198000FEF795FCCDE90001DDE90223FEF724FD19
:10199000C8D300BF201D00F017FB002806DD002083
:1019A00003A90390201D00F0F5FA00BF04F10C001C
:1019B00005B0BDE8F08F2DE9F74F84B0824693461D
:1019C000FFF732FA8046894620E012E0012202A9A0
:1019D000DAF80000FFF723FC9DF8080000B908E0E2
:1019E0009DF8080001A901900AF1040000F0D2FA64
:1019F00000BFDAF80000FFF726FC0028E6DC0AF159
:101A00000C00059900F03EF900B112E05846FEF7CF
:101A1000D0FC04460D46FFF707FA42464B46CDE997
:101A20000001FEF744FC064622462B46FEF7D4FC96
:101A3000CBD300BF0AF1040000F0C6FA002807DD8E
:101A4000002001A901900AF1040000F0A3FA00BFF0
:101A50000AF10C0007B0BDE8F08F000070B5044635
:101A6000204600F0ECF80CA12068FFF705FF0646C1
:101A70000CA1FFF701FF0C4B0CA20EA12046FFF7B3
:101A800045FF05460BA1284600F0FCF808B10120EF
:101A900070BD0020FCE7000041542B43574D4F44DC
:101AA000453D32000D0A0000000040404552524FB3
:101AB000520000004F4B00002DE9F04104460D4656
:101AC000204600F0BCF80EA12068FFF7D5FE804646
:101AD0002946FFF7ECFE06460CA1FFF7CDFE0C4BA6
:101AE0000CA20EA12046FFF711FF07460BA13846B6
:101AF00000F0C8F810B10120BDE8F0810020FBE73C
:101B000041542B4349504D55583D00000D0A0000EB
:101B1000000040404552524F520000004F4B000021
:101B20002DE9F04704460D4616461F4605F13000E4
:101B3000C5B2204600F083F80FA12068FFF79CFE95
:101B400029462068FFF7AAFE82460EA1FFF794FE01
:101B500081463146FFF7ABFE80460BA1FFF78CFEB6
:101B600064210A48FFF7A8F9324639462068FFF792
:101B700025FCBDE8F087000041542B4349505345F4
:101B80004E443D002C0000000D0A00001000002013
:101B90002DE9F04104460D461646204600F04FF868
:101BA0000BA12068FFF768FE29462068FFF77FFE3B
:101BB00007460AA1FFF760FE64210948FFF77CF998
:101BC0002A4631462068FFF7F9FBBDE8F0810000A6
:101BD00041542B43495053454E443D000D0A0000EB
:101BE0001000002010B50446204600F028F805A19A
:101BF0002068FFF741FE054A05A1204600F00AF8DB
:101C000010BD000041540D0A0000000000004040DB
:101C10004F4B00002DE9F04104460D461646324672
:101C200029462046FFF7C7FE07462946384600F0FA
:101C300029F810B10120BDE8F0810020FBE770B564
:101C400004462068FFF706FB002505E0002104F1AB
:101C50000C004155681C85B2201D00F0B5F9A84262
:101C6000F4DC201D00F0B3F970BD70B504460D46DC
:101C70002560201D00F0B0F9041F2046FFF7DFFFAC
:101C8000204670BD70B504460D4629462046FEF735
:101C90004BFA70BD2DE9F041074690460E460025EF
:101CA000102000F041F904000BD0C4F80C80C4E906
:101CB0000176FEF7F3FB0168216004602846BDE869
:101CC000F0810125FAE72DE9F0410646FEF7E6FB33
:101CD000804613E026B1E068B04201D025460EE010
:101CE00020682860D4E90101D8F8007088472046B0
:101CF00000F098F8D8F80000B84200D045462C68AB
:101D0000002CE7D1BDE8F08102E008C8121F08C12D
:101D1000002AFAD170477047002001E001C1121F6C
:101D2000002AFBD17047000000B50248FFF7EAF82F
:101D300000BD00001000002000B50248FFF708FABF
:101D400000BD00003006002010B588B0002003233D
:101D5000CDE9043006900790012007211A460023A0
:101D6000CDE90032CDE902104FF4E13201461548C9
:101D7000FFF78EFB0446144A1449FFF78BFF144803
:101D8000FFF73BFA00200323CDE9043006900790CB
:101D9000012007211A460023CDE90032CDE90210C7
:101DA0004FF4E13203210B48FFF772FB0446064A69
:101DB0000649FFF76FFF07490748FFF756FF08B0CE
:101DC00010BD0000EC0000200000000829180008E9
:101DD00088010020A00100203C02002010B588B03E
:101DE00000200323CDE9043006900790012007214D
:101DF0001A460023CDE90032CDE9021042F2F0325A
:101E000002210548FFF744FB0446044A0449FFF752
:101E100041FF08B010BD0000500000200000000885
:101E20002918000810B5002821D0114B0022001FEE
:101E3000196803E0814203D80A4649680029F9D1AC
:101E400052B11368841A9C4204D10068184410608F
:101E5000104602E0506000E0186039B102680B1AC9
:101E6000934203D10B681A4402604968416010BD77
:101E7000480000201FB50024FEF782FF48E02549F6
:101E80002548FFF751F80446BB2C30D006DC012C66
:101E90000BD0022C0AD0AA2C38D126E0CC2C27D08B
:101EA000DD2C23D0FF2C31D123E030E01B48FFF79D
:101EB0005DF91A48427D017D00231748FFF79AF823
:101EC0000546142229461648FFF778FA1348427D42
:101ED000017D00231048FFF78DF805462B4614229C
:101EE00000211048FFF71CFE11E010E00FE00EE0AB
:101EF0000DE00C480A49FF2200921346CDE901216A
:101F0000039011460448FFF7DBF800E000BF00BF74
:101F1000B5E70000A0010020300600208801002065
:101F2000EC0000203C020020F0B50B30154D20F0F5
:101F300007010024144A0FE003688B420BD38B4245
:101F400005D95E1A43184768C3E9006700E0436893
:101F5000136002C004E0021D10680028ECD1204686
:101F6000002802D1286808B10020F0BD064A0748C1
:101F70001060074A121A22F00702C0E9002401206B
:101F80002860D7E74C000020480000205C060020B5
:101F90005808002010B5024650881388984201DB8B
:101FA000002010BD0B78D488601CD08002F108009E
:101FB0000355D0881388984201DB0020D0805088D8
:101FC000401C50800120ECE7014648887047002102
:101FD00041808180C18070474FF47A710180002177
:101FE00041808180C180704702465088002801DC12
:101FF000002070479388581C908002F10800C05C54
:10200000087090881388984201DB002090805088E7
:10201000401E50800120ECE710B50246508813881E
:10202000984201DB002010BD0B78D488601CD08062
:1020300002F108000355D0881388984201DB002084
:10204000D0805088401C50800120ECE730B503461A
:102050005888904201DA002030BD00200EE09D88B3
:102060006C1C9C8003F10804645D0C549C881D88E2
:10207000AC4201DB00249C80441CA0B29042EEDB09
:102080005888801A58800120E6E770B503465888C2
:1020900010441C88A04201DD002070BD00200EE02D
:1020A0000D5CDE88741CDC8003F10804A555DC8817
:1020B0001D88AC4201DB0024DC80441CA0B29042AD
:1020C000EEDB5888104458800120E6E70146488836
:1020D0007047002141808180C1807047322101809A
:1020E000002141808180C180704700001C210008D0
:1020F0000000002050000000081D00086C210008AE
:1021000050000020080C0000181D0008D1FCFFFF43
:1021100039FCFFFF25FCFFFF11FCFFFF0000000062
:1021200000000000000000000000000000000000AF
:10213000000000000000000000000000000000009F
:10214000000000000000000000000000000000008F
:102150000102030401020304060708090204060839
:0C21600000000000000000000000000073
:04000005080000ED02
:00000001FF
